{
  "_format": "hh-sol-artifact-1",
  "contractName": "NightCity",
  "sourceName": "contracts/NightCity.sol",
  "abi": [
    {
      "inputs": [],
      "stateMutability": "nonpayable",
      "type": "constructor"
    },
    {
      "inputs": [
        {
          "internalType": "address",
          "name": "sender",
          "type": "address"
        },
        {
          "internalType": "uint256",
          "name": "tokenId",
          "type": "uint256"
        },
        {
          "internalType": "address",
          "name": "owner",
          "type": "address"
        }
      ],
      "name": "ERC721IncorrectOwner",
      "type": "error"
    },
    {
      "inputs": [
        {
          "internalType": "address",
          "name": "operator",
          "type": "address"
        },
        {
          "internalType": "uint256",
          "name": "tokenId",
          "type": "uint256"
        }
      ],
      "name": "ERC721InsufficientApproval",
      "type": "error"
    },
    {
      "inputs": [
        {
          "internalType": "address",
          "name": "approver",
          "type": "address"
        }
      ],
      "name": "ERC721InvalidApprover",
      "type": "error"
    },
    {
      "inputs": [
        {
          "internalType": "address",
          "name": "operator",
          "type": "address"
        }
      ],
      "name": "ERC721InvalidOperator",
      "type": "error"
    },
    {
      "inputs": [
        {
          "internalType": "address",
          "name": "owner",
          "type": "address"
        }
      ],
      "name": "ERC721InvalidOwner",
      "type": "error"
    },
    {
      "inputs": [
        {
          "internalType": "address",
          "name": "receiver",
          "type": "address"
        }
      ],
      "name": "ERC721InvalidReceiver",
      "type": "error"
    },
    {
      "inputs": [
        {
          "internalType": "address",
          "name": "sender",
          "type": "address"
        }
      ],
      "name": "ERC721InvalidSender",
      "type": "error"
    },
    {
      "inputs": [
        {
          "internalType": "uint256",
          "name": "tokenId",
          "type": "uint256"
        }
      ],
      "name": "ERC721NonexistentToken",
      "type": "error"
    },
    {
      "inputs": [
        {
          "internalType": "address",
          "name": "owner",
          "type": "address"
        }
      ],
      "name": "OwnableInvalidOwner",
      "type": "error"
    },
    {
      "inputs": [
        {
          "internalType": "address",
          "name": "account",
          "type": "address"
        }
      ],
      "name": "OwnableUnauthorizedAccount",
      "type": "error"
    },
    {
      "anonymous": false,
      "inputs": [
        {
          "indexed": true,
          "internalType": "address",
          "name": "owner",
          "type": "address"
        },
        {
          "indexed": true,
          "internalType": "address",
          "name": "approved",
          "type": "address"
        },
        {
          "indexed": true,
          "internalType": "uint256",
          "name": "tokenId",
          "type": "uint256"
        }
      ],
      "name": "Approval",
      "type": "event"
    },
    {
      "anonymous": false,
      "inputs": [
        {
          "indexed": true,
          "internalType": "address",
          "name": "owner",
          "type": "address"
        },
        {
          "indexed": true,
          "internalType": "address",
          "name": "operator",
          "type": "address"
        },
        {
          "indexed": false,
          "internalType": "bool",
          "name": "approved",
          "type": "bool"
        }
      ],
      "name": "ApprovalForAll",
      "type": "event"
    },
    {
      "anonymous": false,
      "inputs": [
        {
          "indexed": false,
          "internalType": "uint256",
          "name": "_fromTokenId",
          "type": "uint256"
        },
        {
          "indexed": false,
          "internalType": "uint256",
          "name": "_toTokenId",
          "type": "uint256"
        }
      ],
      "name": "BatchMetadataUpdate",
      "type": "event"
    },
    {
      "anonymous": false,
      "inputs": [
        {
          "indexed": true,
          "internalType": "uint256",
          "name": "tokenId",
          "type": "uint256"
        },
        {
          "indexed": true,
          "internalType": "address",
          "name": "buyer",
          "type": "address"
        },
        {
          "indexed": false,
          "internalType": "uint256",
          "name": "price",
          "type": "uint256"
        }
      ],
      "name": "LandBought",
      "type": "event"
    },
    {
      "anonymous": false,
      "inputs": [
        {
          "indexed": true,
          "internalType": "uint256",
          "name": "tokenId",
          "type": "uint256"
        },
        {
          "indexed": false,
          "internalType": "uint256",
          "name": "price",
          "type": "uint256"
        }
      ],
      "name": "LandListedForSale",
      "type": "event"
    },
    {
      "anonymous": false,
      "inputs": [
        {
          "indexed": true,
          "internalType": "uint256",
          "name": "tokenId",
          "type": "uint256"
        },
        {
          "indexed": true,
          "internalType": "address",
          "name": "minter",
          "type": "address"
        },
        {
          "indexed": false,
          "internalType": "string",
          "name": "district",
          "type": "string"
        }
      ],
      "name": "LandMinted",
      "type": "event"
    },
    {
      "anonymous": false,
      "inputs": [
        {
          "indexed": true,
          "internalType": "uint256",
          "name": "tokenId",
          "type": "uint256"
        },
        {
          "indexed": true,
          "internalType": "address",
          "name": "renter",
          "type": "address"
        },
        {
          "indexed": false,
          "internalType": "uint256",
          "name": "expiration",
          "type": "uint256"
        }
      ],
      "name": "LandRented",
      "type": "event"
    },
    {
      "anonymous": false,
      "inputs": [
        {
          "indexed": false,
          "internalType": "uint256",
          "name": "_tokenId",
          "type": "uint256"
        }
      ],
      "name": "MetadataUpdate",
      "type": "event"
    },
    {
      "anonymous": false,
      "inputs": [
        {
          "indexed": true,
          "internalType": "address",
          "name": "previousOwner",
          "type": "address"
        },
        {
          "indexed": true,
          "internalType": "address",
          "name": "newOwner",
          "type": "address"
        }
      ],
      "name": "OwnershipTransferred",
      "type": "event"
    },
    {
      "anonymous": false,
      "inputs": [
        {
          "indexed": true,
          "internalType": "uint256",
          "name": "proposalId",
          "type": "uint256"
        },
        {
          "indexed": false,
          "internalType": "string",
          "name": "description",
          "type": "string"
        },
        {
          "indexed": false,
          "internalType": "uint256",
          "name": "expirationTime",
          "type": "uint256"
        }
      ],
      "name": "ProposalCreated",
      "type": "event"
    },
    {
      "anonymous": false,
      "inputs": [
        {
          "indexed": true,
          "internalType": "uint256",
          "name": "proposalId",
          "type": "uint256"
        },
        {
          "indexed": false,
          "internalType": "bool",
          "name": "accepted",
          "type": "bool"
        }
      ],
      "name": "ProposalExecuted",
      "type": "event"
    },
    {
      "anonymous": false,
      "inputs": [
        {
          "indexed": true,
          "internalType": "uint256",
          "name": "proposalId",
          "type": "uint256"
        },
        {
          "indexed": true,
          "internalType": "address",
          "name": "voter",
          "type": "address"
        },
        {
          "indexed": false,
          "internalType": "bool",
          "name": "inFavor",
          "type": "bool"
        }
      ],
      "name": "ProposalVoted",
      "type": "event"
    },
    {
      "anonymous": false,
      "inputs": [
        {
          "indexed": true,
          "internalType": "address",
          "name": "user",
          "type": "address"
        },
        {
          "indexed": false,
          "internalType": "uint256",
          "name": "newReputation",
          "type": "uint256"
        }
      ],
      "name": "ReputationIncreased",
      "type": "event"
    },
    {
      "anonymous": false,
      "inputs": [
        {
          "indexed": true,
          "internalType": "address",
          "name": "from",
          "type": "address"
        },
        {
          "indexed": true,
          "internalType": "address",
          "name": "to",
          "type": "address"
        },
        {
          "indexed": true,
          "internalType": "uint256",
          "name": "tokenId",
          "type": "uint256"
        }
      ],
      "name": "Transfer",
      "type": "event"
    },
    {
      "inputs": [
        {
          "internalType": "address",
          "name": "to",
          "type": "address"
        },
        {
          "internalType": "uint256",
          "name": "tokenId",
          "type": "uint256"
        }
      ],
      "name": "approve",
      "outputs": [],
      "stateMutability": "nonpayable",
      "type": "function"
    },
    {
      "inputs": [
        {
          "internalType": "address",
          "name": "owner",
          "type": "address"
        }
      ],
      "name": "balanceOf",
      "outputs": [
        {
          "internalType": "uint256",
          "name": "",
          "type": "uint256"
        }
      ],
      "stateMutability": "view",
      "type": "function"
    },
    {
      "inputs": [
        {
          "internalType": "uint256",
          "name": "tokenId",
          "type": "uint256"
        }
      ],
      "name": "buyLand",
      "outputs": [],
      "stateMutability": "payable",
      "type": "function"
    },
    {
      "inputs": [
        {
          "internalType": "string",
          "name": "description",
          "type": "string"
        },
        {
          "internalType": "uint256",
          "name": "duration",
          "type": "uint256"
        }
      ],
      "name": "createProposal",
      "outputs": [],
      "stateMutability": "nonpayable",
      "type": "function"
    },
    {
      "inputs": [
        {
          "internalType": "uint256",
          "name": "proposalId",
          "type": "uint256"
        }
      ],
      "name": "executeProposal",
      "outputs": [],
      "stateMutability": "nonpayable",
      "type": "function"
    },
    {
      "inputs": [
        {
          "internalType": "uint256",
          "name": "tokenId",
          "type": "uint256"
        }
      ],
      "name": "getApproved",
      "outputs": [
        {
          "internalType": "address",
          "name": "",
          "type": "address"
        }
      ],
      "stateMutability": "view",
      "type": "function"
    },
    {
      "inputs": [
        {
          "internalType": "uint256",
          "name": "",
          "type": "uint256"
        },
        {
          "internalType": "address",
          "name": "",
          "type": "address"
        }
      ],
      "name": "hasVoted",
      "outputs": [
        {
          "internalType": "bool",
          "name": "",
          "type": "bool"
        }
      ],
      "stateMutability": "view",
      "type": "function"
    },
    {
      "inputs": [
        {
          "internalType": "address",
          "name": "owner",
          "type": "address"
        },
        {
          "internalType": "address",
          "name": "operator",
          "type": "address"
        }
      ],
      "name": "isApprovedForAll",
      "outputs": [
        {
          "internalType": "bool",
          "name": "",
          "type": "bool"
        }
      ],
      "stateMutability": "view",
      "type": "function"
    },
    {
      "inputs": [
        {
          "internalType": "uint256",
          "name": "",
          "type": "uint256"
        }
      ],
      "name": "lands",
      "outputs": [
        {
          "internalType": "uint256",
          "name": "id",
          "type": "uint256"
        },
        {
          "internalType": "address",
          "name": "owner",
          "type": "address"
        },
        {
          "internalType": "uint256",
          "name": "price",
          "type": "uint256"
        },
        {
          "internalType": "bool",
          "name": "forSale",
          "type": "bool"
        },
        {
          "internalType": "address",
          "name": "renter",
          "type": "address"
        },
        {
          "internalType": "uint256",
          "name": "rentExpiration",
          "type": "uint256"
        },
        {
          "internalType": "string",
          "name": "district",
          "type": "string"
        }
      ],
      "stateMutability": "view",
      "type": "function"
    },
    {
      "inputs": [
        {
          "internalType": "uint256",
          "name": "tokenId",
          "type": "uint256"
        },
        {
          "internalType": "uint256",
          "name": "price",
          "type": "uint256"
        }
      ],
      "name": "listForSale",
      "outputs": [],
      "stateMutability": "nonpayable",
      "type": "function"
    },
    {
      "inputs": [
        {
          "internalType": "string",
          "name": "_tokenURI",
          "type": "string"
        },
        {
          "internalType": "uint256",
          "name": "_price",
          "type": "uint256"
        },
        {
          "internalType": "string",
          "name": "_district",
          "type": "string"
        }
      ],
      "name": "mintLand",
      "outputs": [],
      "stateMutability": "nonpayable",
      "type": "function"
    },
    {
      "inputs": [],
      "name": "name",
      "outputs": [
        {
          "internalType": "string",
          "name": "",
          "type": "string"
        }
      ],
      "stateMutability": "view",
      "type": "function"
    },
    {
      "inputs": [],
      "name": "nextProposalId",
      "outputs": [
        {
          "internalType": "uint256",
          "name": "",
          "type": "uint256"
        }
      ],
      "stateMutability": "view",
      "type": "function"
    },
    {
      "inputs": [],
      "name": "nextTokenId",
      "outputs": [
        {
          "internalType": "uint256",
          "name": "",
          "type": "uint256"
        }
      ],
      "stateMutability": "view",
      "type": "function"
    },
    {
      "inputs": [],
      "name": "owner",
      "outputs": [
        {
          "internalType": "address",
          "name": "",
          "type": "address"
        }
      ],
      "stateMutability": "view",
      "type": "function"
    },
    {
      "inputs": [
        {
          "internalType": "uint256",
          "name": "tokenId",
          "type": "uint256"
        }
      ],
      "name": "ownerOf",
      "outputs": [
        {
          "internalType": "address",
          "name": "",
          "type": "address"
        }
      ],
      "stateMutability": "view",
      "type": "function"
    },
    {
      "inputs": [
        {
          "internalType": "uint256",
          "name": "",
          "type": "uint256"
        }
      ],
      "name": "proposals",
      "outputs": [
        {
          "internalType": "uint256",
          "name": "id",
          "type": "uint256"
        },
        {
          "internalType": "string",
          "name": "description",
          "type": "string"
        },
        {
          "internalType": "uint256",
          "name": "yesVotes",
          "type": "uint256"
        },
        {
          "internalType": "uint256",
          "name": "noVotes",
          "type": "uint256"
        },
        {
          "internalType": "uint256",
          "name": "expirationTime",
          "type": "uint256"
        },
        {
          "internalType": "bool",
          "name": "executed",
          "type": "bool"
        },
        {
          "internalType": "bool",
          "name": "accepted",
          "type": "bool"
        }
      ],
      "stateMutability": "view",
      "type": "function"
    },
    {
      "inputs": [],
      "name": "renounceOwnership",
      "outputs": [],
      "stateMutability": "nonpayable",
      "type": "function"
    },
    {
      "inputs": [
        {
          "internalType": "uint256",
          "name": "tokenId",
          "type": "uint256"
        },
        {
          "internalType": "uint256",
          "name": "duration",
          "type": "uint256"
        }
      ],
      "name": "rentLand",
      "outputs": [],
      "stateMutability": "payable",
      "type": "function"
    },
    {
      "inputs": [
        {
          "internalType": "address",
          "name": "",
          "type": "address"
        }
      ],
      "name": "reputationPoints",
      "outputs": [
        {
          "internalType": "uint256",
          "name": "",
          "type": "uint256"
        }
      ],
      "stateMutability": "view",
      "type": "function"
    },
    {
      "inputs": [
        {
          "internalType": "address",
          "name": "from",
          "type": "address"
        },
        {
          "internalType": "address",
          "name": "to",
          "type": "address"
        },
        {
          "internalType": "uint256",
          "name": "tokenId",
          "type": "uint256"
        }
      ],
      "name": "safeTransferFrom",
      "outputs": [],
      "stateMutability": "nonpayable",
      "type": "function"
    },
    {
      "inputs": [
        {
          "internalType": "address",
          "name": "from",
          "type": "address"
        },
        {
          "internalType": "address",
          "name": "to",
          "type": "address"
        },
        {
          "internalType": "uint256",
          "name": "tokenId",
          "type": "uint256"
        },
        {
          "internalType": "bytes",
          "name": "data",
          "type": "bytes"
        }
      ],
      "name": "safeTransferFrom",
      "outputs": [],
      "stateMutability": "nonpayable",
      "type": "function"
    },
    {
      "inputs": [
        {
          "internalType": "address",
          "name": "operator",
          "type": "address"
        },
        {
          "internalType": "bool",
          "name": "approved",
          "type": "bool"
        }
      ],
      "name": "setApprovalForAll",
      "outputs": [],
      "stateMutability": "nonpayable",
      "type": "function"
    },
    {
      "inputs": [
        {
          "internalType": "bytes4",
          "name": "interfaceId",
          "type": "bytes4"
        }
      ],
      "name": "supportsInterface",
      "outputs": [
        {
          "internalType": "bool",
          "name": "",
          "type": "bool"
        }
      ],
      "stateMutability": "view",
      "type": "function"
    },
    {
      "inputs": [],
      "name": "symbol",
      "outputs": [
        {
          "internalType": "string",
          "name": "",
          "type": "string"
        }
      ],
      "stateMutability": "view",
      "type": "function"
    },
    {
      "inputs": [
        {
          "internalType": "uint256",
          "name": "tokenId",
          "type": "uint256"
        }
      ],
      "name": "tokenURI",
      "outputs": [
        {
          "internalType": "string",
          "name": "",
          "type": "string"
        }
      ],
      "stateMutability": "view",
      "type": "function"
    },
    {
      "inputs": [
        {
          "internalType": "address",
          "name": "from",
          "type": "address"
        },
        {
          "internalType": "address",
          "name": "to",
          "type": "address"
        },
        {
          "internalType": "uint256",
          "name": "tokenId",
          "type": "uint256"
        }
      ],
      "name": "transferFrom",
      "outputs": [],
      "stateMutability": "nonpayable",
      "type": "function"
    },
    {
      "inputs": [
        {
          "internalType": "address",
          "name": "newOwner",
          "type": "address"
        }
      ],
      "name": "transferOwnership",
      "outputs": [],
      "stateMutability": "nonpayable",
      "type": "function"
    },
    {
      "inputs": [
        {
          "internalType": "uint256",
          "name": "proposalId",
          "type": "uint256"
        },
        {
          "internalType": "bool",
          "name": "inFavor",
          "type": "bool"
        }
      ],
      "name": "voteProposal",
      "outputs": [],
      "stateMutability": "nonpayable",
      "type": "function"
    }
  ],
  "bytecode": "0x60806040523480156200001157600080fd5b50336040518060400160405280600f81526020017f4e696768742043697479204c616e6400000000000000000000000000000000008152506040518060400160405280600481526020017f4c414e4400000000000000000000000000000000000000000000000000000000815250816000908162000090919062000472565b508060019081620000a2919062000472565b505050600073ffffffffffffffffffffffffffffffffffffffff168173ffffffffffffffffffffffffffffffffffffffff16036200011a5760006040517f1e4fbdf70000000000000000000000000000000000000000000000000000000081526004016200011191906200059e565b60405180910390fd5b6200012b816200013260201b60201c565b50620005bb565b6000600760009054906101000a900473ffffffffffffffffffffffffffffffffffffffff16905081600760006101000a81548173ffffffffffffffffffffffffffffffffffffffff021916908373ffffffffffffffffffffffffffffffffffffffff1602179055508173ffffffffffffffffffffffffffffffffffffffff168173ffffffffffffffffffffffffffffffffffffffff167f8be0079c531659141344cd1fd0a4f28419497f9722a3daafe3b4186f6b6457e060405160405180910390a35050565b600081519050919050565b7f4e487b7100000000000000000000000000000000000000000000000000000000600052604160045260246000fd5b7f4e487b7100000000000000000000000000000000000000000000000000000000600052602260045260246000fd5b600060028204905060018216806200027a57607f821691505b60208210810362000290576200028f62000232565b5b50919050565b60008190508160005260206000209050919050565b60006020601f8301049050919050565b600082821b905092915050565b600060088302620002fa7fffffffffffffffffffffffffffffffffffffffffffffffffffffffffffffffff82620002bb565b620003068683620002bb565b95508019841693508086168417925050509392505050565b6000819050919050565b6000819050919050565b6000620003536200034d62000347846200031e565b62000328565b6200031e565b9050919050565b6000819050919050565b6200036f8362000332565b620003876200037e826200035a565b848454620002c8565b825550505050565b600090565b6200039e6200038f565b620003ab81848462000364565b505050565b5b81811015620003d357620003c760008262000394565b600181019050620003b1565b5050565b601f8211156200042257620003ec8162000296565b620003f784620002ab565b8101602085101562000407578190505b6200041f6200041685620002ab565b830182620003b0565b50505b505050565b600082821c905092915050565b6000620004476000198460080262000427565b1980831691505092915050565b600062000462838362000434565b9150826002028217905092915050565b6200047d82620001f8565b67ffffffffffffffff81111562000499576200049862000203565b5b620004a5825462000261565b620004b2828285620003d7565b600060209050601f831160018114620004ea5760008415620004d5578287015190505b620004e1858262000454565b86555062000551565b601f198416620004fa8662000296565b60005b828110156200052457848901518255600182019150602085019450602081019050620004fd565b8683101562000544578489015162000540601f89168262000434565b8355505b6001600288020188555050505b505050505050565b600073ffffffffffffffffffffffffffffffffffffffff82169050919050565b6000620005868262000559565b9050919050565b620005988162000579565b82525050565b6000602082019050620005b560008301846200058d565b92915050565b61442180620005cb6000396000f3fe6080604052600436106101c25760003560e01c8063715018a6116100f7578063c87b56dd11610095578063e80d7fec11610064578063e80d7fec14610652578063e985e9c51461067b578063f2fde38b146106b8578063ff80f7bd146106e1576101c2565b8063c87b56dd1461059a578063ced39558146105d7578063e261f1e5146105f3578063e2fb350814610636576101c2565b806395d89b41116100d157806395d89b41146104f4578063a22cb4651461051f578063b88d4fde14610548578063bcfb9b6114610571576101c2565b8063715018a61461048757806375794a3c1461049e5780638da5cb5b146104c9576101c2565b80632ab09d141161016457806342842e0e1161013e57806342842e0e146103a757806343859632146103d05780636352211e1461040d57806370a082311461044a576101c2565b80632ab09d141461032a57806335facf78146103555780633b7ff3da1461037e576101c2565b8063081812fc116101a0578063081812fc14610272578063095ea7b3146102af5780630d61b519146102d857806323b872dd14610301576101c2565b8063013cf08b146101c757806301ffc9a71461020a57806306fdde0314610247575b600080fd5b3480156101d357600080fd5b506101ee60048036038101906101e99190613086565b61071e565b604051610201979695949392919061316d565b60405180910390f35b34801561021657600080fd5b50610231600480360381019061022c919061323b565b610802565b60405161023e9190613268565b60405180910390f35b34801561025357600080fd5b5061025c610863565b6040516102699190613283565b60405180910390f35b34801561027e57600080fd5b5061029960048036038101906102949190613086565b6108f5565b6040516102a691906132e6565b60405180910390f35b3480156102bb57600080fd5b506102d660048036038101906102d1919061332d565b610911565b005b3480156102e457600080fd5b506102ff60048036038101906102fa9190613086565b610927565b005b34801561030d57600080fd5b506103286004803603810190610323919061336d565b610b8a565b005b34801561033657600080fd5b5061033f610c8c565b60405161034c91906133c0565b60405180910390f35b34801561036157600080fd5b5061037c60048036038101906103779190613510565b610c92565b005b34801561038a57600080fd5b506103a560048036038101906103a0919061356c565b610de0565b005b3480156103b357600080fd5b506103ce60048036038101906103c9919061336d565b610fcf565b005b3480156103dc57600080fd5b506103f760048036038101906103f291906135f7565b610fef565b6040516104049190613268565b60405180910390f35b34801561041957600080fd5b50610434600480360381019061042f9190613086565b61101e565b60405161044191906132e6565b60405180910390f35b34801561045657600080fd5b50610471600480360381019061046c9190613637565b611030565b60405161047e91906133c0565b60405180910390f35b34801561049357600080fd5b5061049c6110ea565b005b3480156104aa57600080fd5b506104b36110fe565b6040516104c091906133c0565b60405180910390f35b3480156104d557600080fd5b506104de611104565b6040516104eb91906132e6565b60405180910390f35b34801561050057600080fd5b5061050961112e565b6040516105169190613283565b60405180910390f35b34801561052b57600080fd5b5061054660048036038101906105419190613690565b6111c0565b005b34801561055457600080fd5b5061056f600480360381019061056a9190613771565b6111d6565b005b34801561057d57600080fd5b50610598600480360381019061059391906137f4565b6111fb565b005b3480156105a657600080fd5b506105c160048036038101906105bc9190613086565b611468565b6040516105ce9190613283565b60405180910390f35b6105f160048036038101906105ec9190613086565b61157b565b005b3480156105ff57600080fd5b5061061a60048036038101906106159190613086565b611814565b60405161062d9796959493929190613834565b60405180910390f35b610650600480360381019061064b91906138aa565b61192b565b005b34801561065e57600080fd5b50610679600480360381019061067491906138aa565b611b49565b005b34801561068757600080fd5b506106a2600480360381019061069d91906138ea565b611c45565b6040516106af9190613268565b60405180910390f35b3480156106c457600080fd5b506106df60048036038101906106da9190613637565b611cd9565b005b3480156106ed57600080fd5b5061070860048036038101906107039190613637565b611d5f565b60405161071591906133c0565b60405180910390f35b600c60205280600052604060002060009150905080600001549080600101805461074790613959565b80601f016020809104026020016040519081016040528092919081815260200182805461077390613959565b80156107c05780601f10610795576101008083540402835291602001916107c0565b820191906000526020600020905b8154815290600101906020018083116107a357829003601f168201915b5050505050908060020154908060030154908060040154908060050160009054906101000a900460ff16908060050160019054906101000a900460ff16905087565b6000634906490660e01b7bffffffffffffffffffffffffffffffffffffffffffffffffffffffff1916827bffffffffffffffffffffffffffffffffffffffffffffffffffffffff1916148061085c575061085b82611d77565b5b9050919050565b60606000805461087290613959565b80601f016020809104026020016040519081016040528092919081815260200182805461089e90613959565b80156108eb5780601f106108c0576101008083540402835291602001916108eb565b820191906000526020600020905b8154815290600101906020018083116108ce57829003601f168201915b5050505050905090565b600061090082611e59565b5061090a82611ee1565b9050919050565b610923828261091e611f1e565b611f26565b5050565b61092f611f38565b600c600082815260200190815260200160002060050160009054906101000a900460ff1615610993576040517f08c379a000000000000000000000000000000000000000000000000000000000815260040161098a906139d6565b60405180910390fd5b600c60008281526020019081526020016000206004015442116109eb576040517f08c379a00000000000000000000000000000000000000000000000000000000081526004016109e290613a42565b60405180910390fd5b6000600c6000838152602001908152602001600020600201541180610a2657506000600c600083815260200190815260200160002060030154115b610a65576040517f08c379a0000000000000000000000000000000000000000000000000000000008152600401610a5c90613aae565b60405180910390fd5b600c600082815260200190815260200160002060030154600c6000838152602001908152602001600020600201541115610acd576001600c600083815260200190815260200160002060050160016101000a81548160ff021916908315150217905550610afd565b6000600c600083815260200190815260200160002060050160016101000a81548160ff0219169083151502179055505b6001600c600083815260200190815260200160002060050160006101000a81548160ff021916908315150217905550807f948f4a9cd986f1118c3fbd459f7a22b23c0693e1ca3ef06a6a8be5aa7d39cc03600c600084815260200190815260200160002060050160019054906101000a900460ff16604051610b7f9190613268565b60405180910390a250565b600073ffffffffffffffffffffffffffffffffffffffff168273ffffffffffffffffffffffffffffffffffffffff1603610bfc5760006040517f64a0ae92000000000000000000000000000000000000000000000000000000008152600401610bf391906132e6565b60405180910390fd5b6000610c108383610c0b611f1e565b611fbf565b90508373ffffffffffffffffffffffffffffffffffffffff168173ffffffffffffffffffffffffffffffffffffffff1614610c86578382826040517f64283d7b000000000000000000000000000000000000000000000000000000008152600401610c7d93929190613ace565b60405180910390fd5b50505050565b60095481565b6040518060e00160405280600954815260200183815260200160008152602001600081526020018242610cc59190613b34565b815260200160001515815260200160001515815250600c60006009548152602001908152602001600020600082015181600001556020820151816001019081610d0e9190613d14565b5060408201518160020155606082015181600301556080820151816004015560a08201518160050160006101000a81548160ff02191690831515021790555060c08201518160050160016101000a81548160ff02191690831515021790555090505060096000815480929190610d8390613de6565b91905055506009547ff5dc0da9afa6d080780a49fd8c680f03d2ddf3c067cd6d0c85360c096644d2d383600c6000600954815260200190815260200160002060040154604051610dd4929190613e2e565b60405180910390a25050565b60006008549050610df133826121d9565b610dfb81856121f7565b6040518060e001604052808281526020013373ffffffffffffffffffffffffffffffffffffffff168152602001848152602001600015158152602001600073ffffffffffffffffffffffffffffffffffffffff1681526020016000815260200183815250600a60008381526020019081526020016000206000820151816000015560208201518160010160006101000a81548173ffffffffffffffffffffffffffffffffffffffff021916908373ffffffffffffffffffffffffffffffffffffffff1602179055506040820151816002015560608201518160030160006101000a81548160ff02191690831515021790555060808201518160030160016101000a81548173ffffffffffffffffffffffffffffffffffffffff021916908373ffffffffffffffffffffffffffffffffffffffff16021790555060a0820151816004015560c0820151816005019081610f539190613d14565b5090505060086000815480929190610f6a90613de6565b9190505550610f7a33600a612253565b3373ffffffffffffffffffffffffffffffffffffffff16817fc90e02727a6d339588cdd8fd77a925792b5b9c252ad61b67e234e5fde620e2bb84604051610fc19190613283565b60405180910390a350505050565b610fea838383604051806020016040528060008152506111d6565b505050565b600d6020528160005260406000206020528060005260406000206000915091509054906101000a900460ff1681565b600061102982611e59565b9050919050565b60008073ffffffffffffffffffffffffffffffffffffffff168273ffffffffffffffffffffffffffffffffffffffff16036110a35760006040517f89c62b6400000000000000000000000000000000000000000000000000000000815260040161109a91906132e6565b60405180910390fd5b600360008373ffffffffffffffffffffffffffffffffffffffff1673ffffffffffffffffffffffffffffffffffffffff168152602001908152602001600020549050919050565b6110f2611f38565b6110fc600061233a565b565b60085481565b6000600760009054906101000a900473ffffffffffffffffffffffffffffffffffffffff16905090565b60606001805461113d90613959565b80601f016020809104026020016040519081016040528092919081815260200182805461116990613959565b80156111b65780601f1061118b576101008083540402835291602001916111b6565b820191906000526020600020905b81548152906001019060200180831161119957829003601f168201915b5050505050905090565b6111d26111cb611f1e565b8383612400565b5050565b6111e1848484610b8a565b6111f56111ec611f1e565b8585858561256f565b50505050565b600061120633611030565b11611246576040517f08c379a000000000000000000000000000000000000000000000000000000000815260040161123d90613eaa565b60405180910390fd5b600d600083815260200190815260200160002060003373ffffffffffffffffffffffffffffffffffffffff1673ffffffffffffffffffffffffffffffffffffffff16815260200190815260200160002060009054906101000a900460ff16156112e4576040517f08c379a00000000000000000000000000000000000000000000000000000000081526004016112db90613f3c565b60405180910390fd5b600c60008381526020019081526020016000206004015442111561133d576040517f08c379a000000000000000000000000000000000000000000000000000000000815260040161133490613fa8565b60405180910390fd5b801561137457600c6000838152602001908152602001600020600201600081548092919061136a90613de6565b91905055506113a1565b600c6000838152602001908152602001600020600301600081548092919061139b90613de6565b91905055505b6001600d600084815260200190815260200160002060003373ffffffffffffffffffffffffffffffffffffffff1673ffffffffffffffffffffffffffffffffffffffff16815260200190815260200160002060006101000a81548160ff021916908315150217905550611415336002612253565b3373ffffffffffffffffffffffffffffffffffffffff16827f0def80f9a3b4c7a4251442658ccf516bf33ea4acaf31638fc6da8ebdb0f64c728360405161145c9190613268565b60405180910390a35050565b606061147382611e59565b50600060066000848152602001908152602001600020805461149490613959565b80601f01602080910402602001604051908101604052809291908181526020018280546114c090613959565b801561150d5780601f106114e25761010080835404028352916020019161150d565b820191906000526020600020905b8154815290600101906020018083116114f057829003601f168201915b50505050509050600061151e612720565b90506000815103611533578192505050611576565b600082511115611568578082604051602001611550929190614004565b60405160208183030381529060405292505050611576565b61157184612737565b925050505b919050565b600a600082815260200190815260200160002060030160009054906101000a900460ff166115de576040517f08c379a00000000000000000000000000000000000000000000000000000000081526004016115d590614074565b60405180910390fd5b600a600082815260200190815260200160002060020154341015611637576040517f08c379a000000000000000000000000000000000000000000000000000000000815260040161162e906140e0565b60405180910390fd5b6000600a600083815260200190815260200160002060010160009054906101000a900473ffffffffffffffffffffffffffffffffffffffff1690503373ffffffffffffffffffffffffffffffffffffffff168173ffffffffffffffffffffffffffffffffffffffff16036116e0576040517f08c379a00000000000000000000000000000000000000000000000000000000081526004016116d79061414c565b60405180910390fd5b6000600a600084815260200190815260200160002060030160006101000a81548160ff02191690831515021790555033600a600084815260200190815260200160002060010160006101000a81548173ffffffffffffffffffffffffffffffffffffffff021916908373ffffffffffffffffffffffffffffffffffffffff16021790555061176f8133846127a0565b8073ffffffffffffffffffffffffffffffffffffffff166108fc349081150290604051600060405180830381858888f193505050501580156117b5573d6000803e3d6000fd5b506117c133600a612253565b3373ffffffffffffffffffffffffffffffffffffffff16827ff240bec15fb695f4a5d675ef66f2bf676a48b0068617c8718d7d6bbcc8adaf273460405161180891906133c0565b60405180910390a35050565b600a6020528060005260406000206000915090508060000154908060010160009054906101000a900473ffffffffffffffffffffffffffffffffffffffff16908060020154908060030160009054906101000a900460ff16908060030160019054906101000a900473ffffffffffffffffffffffffffffffffffffffff16908060040154908060050180546118a890613959565b80601f01602080910402602001604051908101604052809291908181526020018280546118d490613959565b80156119215780601f106118f657610100808354040283529160200191611921565b820191906000526020600020905b81548152906001019060200180831161190457829003601f168201915b5050505050905087565b60001515600a600084815260200190815260200160002060030160009054906101000a900460ff16151514611995576040517f08c379a000000000000000000000000000000000000000000000000000000000815260040161198c906141b8565b60405180910390fd5b600073ffffffffffffffffffffffffffffffffffffffff16600a600084815260200190815260200160002060030160019054906101000a900473ffffffffffffffffffffffffffffffffffffffff1673ffffffffffffffffffffffffffffffffffffffff161480611a1b5750600a60008381526020019081526020016000206004015442115b611a5a576040517f08c379a0000000000000000000000000000000000000000000000000000000008152600401611a5190614224565b60405180910390fd5b33600a600084815260200190815260200160002060030160016101000a81548173ffffffffffffffffffffffffffffffffffffffff021916908373ffffffffffffffffffffffffffffffffffffffff1602179055508042611abb9190613b34565b600a600084815260200190815260200160002060040181905550611ae0336005612253565b3373ffffffffffffffffffffffffffffffffffffffff16827faa1ddafd259492a44824eb1ab461269144fdb9c3590a4299bfa0fcef0aa40e1c600a600086815260200190815260200160002060040154604051611b3d91906133c0565b60405180910390a35050565b3373ffffffffffffffffffffffffffffffffffffffff16611b698361101e565b73ffffffffffffffffffffffffffffffffffffffff1614611bbf576040517f08c379a0000000000000000000000000000000000000000000000000000000008152600401611bb690614290565b60405180910390fd5b6001600a600084815260200190815260200160002060030160006101000a81548160ff02191690831515021790555080600a600084815260200190815260200160002060020181905550817fdea5c3193c68e6199b356e0ceac7970d0951be96d03378b29dbaf40b6e2f433482604051611c3991906133c0565b60405180910390a25050565b6000600560008473ffffffffffffffffffffffffffffffffffffffff1673ffffffffffffffffffffffffffffffffffffffff16815260200190815260200160002060008373ffffffffffffffffffffffffffffffffffffffff1673ffffffffffffffffffffffffffffffffffffffff16815260200190815260200160002060009054906101000a900460ff16905092915050565b611ce1611f38565b600073ffffffffffffffffffffffffffffffffffffffff168173ffffffffffffffffffffffffffffffffffffffff1603611d535760006040517f1e4fbdf7000000000000000000000000000000000000000000000000000000008152600401611d4a91906132e6565b60405180910390fd5b611d5c8161233a565b50565b600b6020528060005260406000206000915090505481565b60007f80ac58cd000000000000000000000000000000000000000000000000000000007bffffffffffffffffffffffffffffffffffffffffffffffffffffffff1916827bffffffffffffffffffffffffffffffffffffffffffffffffffffffff19161480611e4257507f5b5e139f000000000000000000000000000000000000000000000000000000007bffffffffffffffffffffffffffffffffffffffffffffffffffffffff1916827bffffffffffffffffffffffffffffffffffffffffffffffffffffffff1916145b80611e525750611e518261290d565b5b9050919050565b600080611e6583612977565b9050600073ffffffffffffffffffffffffffffffffffffffff168173ffffffffffffffffffffffffffffffffffffffff1603611ed857826040517f7e273289000000000000000000000000000000000000000000000000000000008152600401611ecf91906133c0565b60405180910390fd5b80915050919050565b60006004600083815260200190815260200160002060009054906101000a900473ffffffffffffffffffffffffffffffffffffffff169050919050565b600033905090565b611f3383838360016129b4565b505050565b611f40611f1e565b73ffffffffffffffffffffffffffffffffffffffff16611f5e611104565b73ffffffffffffffffffffffffffffffffffffffff1614611fbd57611f81611f1e565b6040517f118cdaa7000000000000000000000000000000000000000000000000000000008152600401611fb491906132e6565b60405180910390fd5b565b600080611fcb84612977565b9050600073ffffffffffffffffffffffffffffffffffffffff168373ffffffffffffffffffffffffffffffffffffffff161461200d5761200c818486612b79565b5b600073ffffffffffffffffffffffffffffffffffffffff168173ffffffffffffffffffffffffffffffffffffffff161461209e5761204f6000856000806129b4565b6001600360008373ffffffffffffffffffffffffffffffffffffffff1673ffffffffffffffffffffffffffffffffffffffff168152602001908152602001600020600082825403925050819055505b600073ffffffffffffffffffffffffffffffffffffffff168573ffffffffffffffffffffffffffffffffffffffff1614612121576001600360008773ffffffffffffffffffffffffffffffffffffffff1673ffffffffffffffffffffffffffffffffffffffff168152602001908152602001600020600082825401925050819055505b846002600086815260200190815260200160002060006101000a81548173ffffffffffffffffffffffffffffffffffffffff021916908373ffffffffffffffffffffffffffffffffffffffff160217905550838573ffffffffffffffffffffffffffffffffffffffff168273ffffffffffffffffffffffffffffffffffffffff167fddf252ad1be2c89b69c2b068fc378daa952ba7f163c4a11628f55a4df523b3ef60405160405180910390a4809150509392505050565b6121f3828260405180602001604052806000815250612c3d565b5050565b806006600084815260200190815260200160002090816122179190613d14565b507ff8e1a15aba9398e019f0b49df1a4fde98ee17ae345cb5f6b5e2c27f5033e8ce78260405161224791906133c0565b60405180910390a15050565b80600b60008473ffffffffffffffffffffffffffffffffffffffff1673ffffffffffffffffffffffffffffffffffffffff16815260200190815260200160002060008282546122a29190613b34565b925050819055508173ffffffffffffffffffffffffffffffffffffffff167ffac498e7ee7d43e382528bf22afd838a7c6abfa5f54e7c564f7e5a54a18ca34c600b60008573ffffffffffffffffffffffffffffffffffffffff1673ffffffffffffffffffffffffffffffffffffffff1681526020019081526020016000205460405161232e91906133c0565b60405180910390a25050565b6000600760009054906101000a900473ffffffffffffffffffffffffffffffffffffffff16905081600760006101000a81548173ffffffffffffffffffffffffffffffffffffffff021916908373ffffffffffffffffffffffffffffffffffffffff1602179055508173ffffffffffffffffffffffffffffffffffffffff168173ffffffffffffffffffffffffffffffffffffffff167f8be0079c531659141344cd1fd0a4f28419497f9722a3daafe3b4186f6b6457e060405160405180910390a35050565b600073ffffffffffffffffffffffffffffffffffffffff168273ffffffffffffffffffffffffffffffffffffffff160361247157816040517f5b08ba1800000000000000000000000000000000000000000000000000000000815260040161246891906132e6565b60405180910390fd5b80600560008573ffffffffffffffffffffffffffffffffffffffff1673ffffffffffffffffffffffffffffffffffffffff16815260200190815260200160002060008473ffffffffffffffffffffffffffffffffffffffff1673ffffffffffffffffffffffffffffffffffffffff16815260200190815260200160002060006101000a81548160ff0219169083151502179055508173ffffffffffffffffffffffffffffffffffffffff168373ffffffffffffffffffffffffffffffffffffffff167f17307eab39ab6107e8899845ad3d59bd9653f200f220920489ca2b5937696c31836040516125629190613268565b60405180910390a3505050565b60008373ffffffffffffffffffffffffffffffffffffffff163b1115612719578273ffffffffffffffffffffffffffffffffffffffff1663150b7a02868685856040518563ffffffff1660e01b81526004016125ce9493929190614305565b6020604051808303816000875af192505050801561260a57506040513d601f19601f820116820180604052508101906126079190614366565b60015b61268e573d806000811461263a576040519150601f19603f3d011682016040523d82523d6000602084013e61263f565b606091505b50600081510361268657836040517f64a0ae9200000000000000000000000000000000000000000000000000000000815260040161267d91906132e6565b60405180910390fd5b805181602001fd5b63150b7a0260e01b7bffffffffffffffffffffffffffffffffffffffffffffffffffffffff1916817bffffffffffffffffffffffffffffffffffffffffffffffffffffffff19161461271757836040517f64a0ae9200000000000000000000000000000000000000000000000000000000815260040161270e91906132e6565b60405180910390fd5b505b5050505050565b606060405180602001604052806000815250905090565b606061274282611e59565b50600061274d612720565b9050600081511161276d5760405180602001604052806000815250612798565b8061277784612c61565b604051602001612788929190614004565b6040516020818303038152906040525b915050919050565b600073ffffffffffffffffffffffffffffffffffffffff168273ffffffffffffffffffffffffffffffffffffffff16036128125760006040517f64a0ae9200000000000000000000000000000000000000000000000000000000815260040161280991906132e6565b60405180910390fd5b600061282083836000611fbf565b9050600073ffffffffffffffffffffffffffffffffffffffff168173ffffffffffffffffffffffffffffffffffffffff160361289357816040517f7e27328900000000000000000000000000000000000000000000000000000000815260040161288a91906133c0565b60405180910390fd5b8373ffffffffffffffffffffffffffffffffffffffff168173ffffffffffffffffffffffffffffffffffffffff1614612907578382826040517f64283d7b0000000000000000000000000000000000000000000000000000000081526004016128fe93929190613ace565b60405180910390fd5b50505050565b60007f01ffc9a7000000000000000000000000000000000000000000000000000000007bffffffffffffffffffffffffffffffffffffffffffffffffffffffff1916827bffffffffffffffffffffffffffffffffffffffffffffffffffffffff1916149050919050565b60006002600083815260200190815260200160002060009054906101000a900473ffffffffffffffffffffffffffffffffffffffff169050919050565b80806129ed5750600073ffffffffffffffffffffffffffffffffffffffff168273ffffffffffffffffffffffffffffffffffffffff1614155b15612b215760006129fd84611e59565b9050600073ffffffffffffffffffffffffffffffffffffffff168373ffffffffffffffffffffffffffffffffffffffff1614158015612a6857508273ffffffffffffffffffffffffffffffffffffffff168173ffffffffffffffffffffffffffffffffffffffff1614155b8015612a7b5750612a798184611c45565b155b15612abd57826040517fa9fbf51f000000000000000000000000000000000000000000000000000000008152600401612ab491906132e6565b60405180910390fd5b8115612b1f57838573ffffffffffffffffffffffffffffffffffffffff168273ffffffffffffffffffffffffffffffffffffffff167f8c5be1e5ebec7d5bd14f71427d1e84f3dd0314c0f7b2291e5b200ac8c7c3b92560405160405180910390a45b505b836004600085815260200190815260200160002060006101000a81548173ffffffffffffffffffffffffffffffffffffffff021916908373ffffffffffffffffffffffffffffffffffffffff16021790555050505050565b612b84838383612d2f565b612c3857600073ffffffffffffffffffffffffffffffffffffffff168373ffffffffffffffffffffffffffffffffffffffff1603612bf957806040517f7e273289000000000000000000000000000000000000000000000000000000008152600401612bf091906133c0565b60405180910390fd5b81816040517f177e802f000000000000000000000000000000000000000000000000000000008152600401612c2f929190614393565b60405180910390fd5b505050565b612c478383612df0565b612c5c612c52611f1e565b600085858561256f565b505050565b606060006001612c7084612ee9565b01905060008167ffffffffffffffff811115612c8f57612c8e6133e5565b5b6040519080825280601f01601f191660200182016040528015612cc15781602001600182028036833780820191505090505b509050600082602001820190505b600115612d24578080600190039150507f3031323334353637383961626364656600000000000000000000000000000000600a86061a8153600a8581612d1857612d176143bc565b5b04945060008503612ccf575b819350505050919050565b60008073ffffffffffffffffffffffffffffffffffffffff168373ffffffffffffffffffffffffffffffffffffffff1614158015612de757508273ffffffffffffffffffffffffffffffffffffffff168473ffffffffffffffffffffffffffffffffffffffff161480612da85750612da78484611c45565b5b80612de657508273ffffffffffffffffffffffffffffffffffffffff16612dce83611ee1565b73ffffffffffffffffffffffffffffffffffffffff16145b5b90509392505050565b600073ffffffffffffffffffffffffffffffffffffffff168273ffffffffffffffffffffffffffffffffffffffff1603612e625760006040517f64a0ae92000000000000000000000000000000000000000000000000000000008152600401612e5991906132e6565b60405180910390fd5b6000612e7083836000611fbf565b9050600073ffffffffffffffffffffffffffffffffffffffff168173ffffffffffffffffffffffffffffffffffffffff1614612ee45760006040517f73c6ac6e000000000000000000000000000000000000000000000000000000008152600401612edb91906132e6565b60405180910390fd5b505050565b600080600090507a184f03e93ff9f4daa797ed6e38ed64bf6a1f0100000000000000008310612f47577a184f03e93ff9f4daa797ed6e38ed64bf6a1f0100000000000000008381612f3d57612f3c6143bc565b5b0492506040810190505b6d04ee2d6d415b85acef81000000008310612f84576d04ee2d6d415b85acef81000000008381612f7a57612f796143bc565b5b0492506020810190505b662386f26fc100008310612fb357662386f26fc100008381612fa957612fa86143bc565b5b0492506010810190505b6305f5e1008310612fdc576305f5e1008381612fd257612fd16143bc565b5b0492506008810190505b6127108310613001576127108381612ff757612ff66143bc565b5b0492506004810190505b60648310613024576064838161301a576130196143bc565b5b0492506002810190505b600a8310613033576001810190505b80915050919050565b6000604051905090565b600080fd5b600080fd5b6000819050919050565b61306381613050565b811461306e57600080fd5b50565b6000813590506130808161305a565b92915050565b60006020828403121561309c5761309b613046565b5b60006130aa84828501613071565b91505092915050565b6130bc81613050565b82525050565b600081519050919050565b600082825260208201905092915050565b60005b838110156130fc5780820151818401526020810190506130e1565b60008484015250505050565b6000601f19601f8301169050919050565b6000613124826130c2565b61312e81856130cd565b935061313e8185602086016130de565b61314781613108565b840191505092915050565b60008115159050919050565b61316781613152565b82525050565b600060e082019050613182600083018a6130b3565b81810360208301526131948189613119565b90506131a360408301886130b3565b6131b060608301876130b3565b6131bd60808301866130b3565b6131ca60a083018561315e565b6131d760c083018461315e565b98975050505050505050565b60007fffffffff0000000000000000000000000000000000000000000000000000000082169050919050565b613218816131e3565b811461322357600080fd5b50565b6000813590506132358161320f565b92915050565b60006020828403121561325157613250613046565b5b600061325f84828501613226565b91505092915050565b600060208201905061327d600083018461315e565b92915050565b6000602082019050818103600083015261329d8184613119565b905092915050565b600073ffffffffffffffffffffffffffffffffffffffff82169050919050565b60006132d0826132a5565b9050919050565b6132e0816132c5565b82525050565b60006020820190506132fb60008301846132d7565b92915050565b61330a816132c5565b811461331557600080fd5b50565b60008135905061332781613301565b92915050565b6000806040838503121561334457613343613046565b5b600061335285828601613318565b925050602061336385828601613071565b9150509250929050565b60008060006060848603121561338657613385613046565b5b600061339486828701613318565b93505060206133a586828701613318565b92505060406133b686828701613071565b9150509250925092565b60006020820190506133d560008301846130b3565b92915050565b600080fd5b600080fd5b7f4e487b7100000000000000000000000000000000000000000000000000000000600052604160045260246000fd5b61341d82613108565b810181811067ffffffffffffffff8211171561343c5761343b6133e5565b5b80604052505050565b600061344f61303c565b905061345b8282613414565b919050565b600067ffffffffffffffff82111561347b5761347a6133e5565b5b61348482613108565b9050602081019050919050565b82818337600083830152505050565b60006134b36134ae84613460565b613445565b9050828152602081018484840111156134cf576134ce6133e0565b5b6134da848285613491565b509392505050565b600082601f8301126134f7576134f66133db565b5b81356135078482602086016134a0565b91505092915050565b6000806040838503121561352757613526613046565b5b600083013567ffffffffffffffff8111156135455761354461304b565b5b613551858286016134e2565b925050602061356285828601613071565b9150509250929050565b60008060006060848603121561358557613584613046565b5b600084013567ffffffffffffffff8111156135a3576135a261304b565b5b6135af868287016134e2565b93505060206135c086828701613071565b925050604084013567ffffffffffffffff8111156135e1576135e061304b565b5b6135ed868287016134e2565b9150509250925092565b6000806040838503121561360e5761360d613046565b5b600061361c85828601613071565b925050602061362d85828601613318565b9150509250929050565b60006020828403121561364d5761364c613046565b5b600061365b84828501613318565b91505092915050565b61366d81613152565b811461367857600080fd5b50565b60008135905061368a81613664565b92915050565b600080604083850312156136a7576136a6613046565b5b60006136b585828601613318565b92505060206136c68582860161367b565b9150509250929050565b600067ffffffffffffffff8211156136eb576136ea6133e5565b5b6136f482613108565b9050602081019050919050565b600061371461370f846136d0565b613445565b9050828152602081018484840111156137305761372f6133e0565b5b61373b848285613491565b509392505050565b600082601f830112613758576137576133db565b5b8135613768848260208601613701565b91505092915050565b6000806000806080858703121561378b5761378a613046565b5b600061379987828801613318565b94505060206137aa87828801613318565b93505060406137bb87828801613071565b925050606085013567ffffffffffffffff8111156137dc576137db61304b565b5b6137e887828801613743565b91505092959194509250565b6000806040838503121561380b5761380a613046565b5b600061381985828601613071565b925050602061382a8582860161367b565b9150509250929050565b600060e082019050613849600083018a6130b3565b61385660208301896132d7565b61386360408301886130b3565b613870606083018761315e565b61387d60808301866132d7565b61388a60a08301856130b3565b81810360c083015261389c8184613119565b905098975050505050505050565b600080604083850312156138c1576138c0613046565b5b60006138cf85828601613071565b92505060206138e085828601613071565b9150509250929050565b6000806040838503121561390157613900613046565b5b600061390f85828601613318565b925050602061392085828601613318565b9150509250929050565b7f4e487b7100000000000000000000000000000000000000000000000000000000600052602260045260246000fd5b6000600282049050600182168061397157607f821691505b6020821081036139845761398361392a565b5b50919050565b7f416c726561647920657865637574656400000000000000000000000000000000600082015250565b60006139c06010836130cd565b91506139cb8261398a565b602082019050919050565b600060208201905081810360008301526139ef816139b3565b9050919050565b7f566f74696e6720706572696f6420686173206e6f7420656e6465642079657400600082015250565b6000613a2c601f836130cd565b9150613a37826139f6565b602082019050919050565b60006020820190508181036000830152613a5b81613a1f565b9050919050565b7f4e6f20766f746573206f6e20746869732070726f706f73616c00000000000000600082015250565b6000613a986019836130cd565b9150613aa382613a62565b602082019050919050565b60006020820190508181036000830152613ac781613a8b565b9050919050565b6000606082019050613ae360008301866132d7565b613af060208301856130b3565b613afd60408301846132d7565b949350505050565b7f4e487b7100000000000000000000000000000000000000000000000000000000600052601160045260246000fd5b6000613b3f82613050565b9150613b4a83613050565b9250828201905080821115613b6257613b61613b05565b5b92915050565b60008190508160005260206000209050919050565b60006020601f8301049050919050565b600082821b905092915050565b600060088302613bca7fffffffffffffffffffffffffffffffffffffffffffffffffffffffffffffffff82613b8d565b613bd48683613b8d565b95508019841693508086168417925050509392505050565b6000819050919050565b6000613c11613c0c613c0784613050565b613bec565b613050565b9050919050565b6000819050919050565b613c2b83613bf6565b613c3f613c3782613c18565b848454613b9a565b825550505050565b600090565b613c54613c47565b613c5f818484613c22565b505050565b5b81811015613c8357613c78600082613c4c565b600181019050613c65565b5050565b601f821115613cc857613c9981613b68565b613ca284613b7d565b81016020851015613cb1578190505b613cc5613cbd85613b7d565b830182613c64565b50505b505050565b600082821c905092915050565b6000613ceb60001984600802613ccd565b1980831691505092915050565b6000613d048383613cda565b9150826002028217905092915050565b613d1d826130c2565b67ffffffffffffffff811115613d3657613d356133e5565b5b613d408254613959565b613d4b828285613c87565b600060209050601f831160018114613d7e5760008415613d6c578287015190505b613d768582613cf8565b865550613dde565b601f198416613d8c86613b68565b60005b82811015613db457848901518255600182019150602085019450602081019050613d8f565b86831015613dd15784890151613dcd601f891682613cda565b8355505b6001600288020188555050505b505050505050565b6000613df182613050565b91507fffffffffffffffffffffffffffffffffffffffffffffffffffffffffffffffff8203613e2357613e22613b05565b5b600182019050919050565b60006040820190508181036000830152613e488185613119565b9050613e5760208301846130b3565b9392505050565b7f4f6e6c79206c616e646f776e6572732063616e20766f74650000000000000000600082015250565b6000613e946018836130cd565b9150613e9f82613e5e565b602082019050919050565b60006020820190508181036000830152613ec381613e87565b9050919050565b7f596f75206861766520616c726561647920766f746564206f6e2074686973207060008201527f726f706f73616c00000000000000000000000000000000000000000000000000602082015250565b6000613f266027836130cd565b9150613f3182613eca565b604082019050919050565b60006020820190508181036000830152613f5581613f19565b9050919050565b7f566f74696e6720706572696f642068617320656e646564000000000000000000600082015250565b6000613f926017836130cd565b9150613f9d82613f5c565b602082019050919050565b60006020820190508181036000830152613fc181613f85565b9050919050565b600081905092915050565b6000613fde826130c2565b613fe88185613fc8565b9350613ff88185602086016130de565b80840191505092915050565b60006140108285613fd3565b915061401c8284613fd3565b91508190509392505050565b7f4c616e64206973206e6f7420666f722073616c65000000000000000000000000600082015250565b600061405e6014836130cd565b915061406982614028565b602082019050919050565b6000602082019050818103600083015261408d81614051565b9050919050565b7f496e73756666696369656e742066756e64730000000000000000000000000000600082015250565b60006140ca6012836130cd565b91506140d582614094565b602082019050919050565b600060208201905081810360008301526140f9816140bd565b9050919050565b7f43616e6e6f742062757920796f7572206f776e206c616e640000000000000000600082015250565b60006141366018836130cd565b915061414182614100565b602082019050919050565b6000602082019050818103600083015261416581614129565b9050919050565b7f4c616e6420697320666f722073616c652c206e6f742072656e74000000000000600082015250565b60006141a2601a836130cd565b91506141ad8261416c565b602082019050919050565b600060208201905081810360008301526141d181614195565b9050919050565b7f416c72656164792072656e746564000000000000000000000000000000000000600082015250565b600061420e600e836130cd565b9150614219826141d8565b602082019050919050565b6000602082019050818103600083015261423d81614201565b9050919050565b7f4e6f7420746865206c616e646f776e6572000000000000000000000000000000600082015250565b600061427a6011836130cd565b915061428582614244565b602082019050919050565b600060208201905081810360008301526142a98161426d565b9050919050565b600081519050919050565b600082825260208201905092915050565b60006142d7826142b0565b6142e181856142bb565b93506142f18185602086016130de565b6142fa81613108565b840191505092915050565b600060808201905061431a60008301876132d7565b61432760208301866132d7565b61433460408301856130b3565b818103606083015261434681846142cc565b905095945050505050565b6000815190506143608161320f565b92915050565b60006020828403121561437c5761437b613046565b5b600061438a84828501614351565b91505092915050565b60006040820190506143a860008301856132d7565b6143b560208301846130b3565b9392505050565b7f4e487b7100000000000000000000000000000000000000000000000000000000600052601260045260246000fdfea26469706673582212205ca22e1502d2def909ae97639659fa239634cdd27e1c39540db27edd3c1b4da264736f6c63430008140033",
  "linkReferences": {},
  "deployedLinkReferences": {}
}