{
    "_format": "hh-sol-artifact-1",
    "contractName": "NightCity",
    "sourceName": "contracts/NightCity.sol",
    "abi": [
        {
            "inputs": [],
            "stateMutability": "nonpayable",
            "type": "constructor"
        },
        {
            "inputs": [
                {
                    "internalType": "address",
                    "name": "sender",
                    "type": "address"
                },
                {
                    "internalType": "uint256",
                    "name": "tokenId",
                    "type": "uint256"
                },
                {
                    "internalType": "address",
                    "name": "owner",
                    "type": "address"
                }
            ],
            "name": "ERC721IncorrectOwner",
            "type": "error"
        },
        {
            "inputs": [
                {
                    "internalType": "address",
                    "name": "operator",
                    "type": "address"
                },
                {
                    "internalType": "uint256",
                    "name": "tokenId",
                    "type": "uint256"
                }
            ],
            "name": "ERC721InsufficientApproval",
            "type": "error"
        },
        {
            "inputs": [
                {
                    "internalType": "address",
                    "name": "approver",
                    "type": "address"
                }
            ],
            "name": "ERC721InvalidApprover",
            "type": "error"
        },
        {
            "inputs": [
                {
                    "internalType": "address",
                    "name": "operator",
                    "type": "address"
                }
            ],
            "name": "ERC721InvalidOperator",
            "type": "error"
        },
        {
            "inputs": [
                {
                    "internalType": "address",
                    "name": "owner",
                    "type": "address"
                }
            ],
            "name": "ERC721InvalidOwner",
            "type": "error"
        },
        {
            "inputs": [
                {
                    "internalType": "address",
                    "name": "receiver",
                    "type": "address"
                }
            ],
            "name": "ERC721InvalidReceiver",
            "type": "error"
        },
        {
            "inputs": [
                {
                    "internalType": "address",
                    "name": "sender",
                    "type": "address"
                }
            ],
            "name": "ERC721InvalidSender",
            "type": "error"
        },
        {
            "inputs": [
                {
                    "internalType": "uint256",
                    "name": "tokenId",
                    "type": "uint256"
                }
            ],
            "name": "ERC721NonexistentToken",
            "type": "error"
        },
        {
            "inputs": [
                {
                    "internalType": "address",
                    "name": "owner",
                    "type": "address"
                }
            ],
            "name": "OwnableInvalidOwner",
            "type": "error"
        },
        {
            "inputs": [
                {
                    "internalType": "address",
                    "name": "account",
                    "type": "address"
                }
            ],
            "name": "OwnableUnauthorizedAccount",
            "type": "error"
        },
        {
            "anonymous": false,
            "inputs": [
                {
                    "indexed": true,
                    "internalType": "address",
                    "name": "owner",
                    "type": "address"
                },
                {
                    "indexed": true,
                    "internalType": "address",
                    "name": "approved",
                    "type": "address"
                },
                {
                    "indexed": true,
                    "internalType": "uint256",
                    "name": "tokenId",
                    "type": "uint256"
                }
            ],
            "name": "Approval",
            "type": "event"
        },
        {
            "anonymous": false,
            "inputs": [
                {
                    "indexed": true,
                    "internalType": "address",
                    "name": "owner",
                    "type": "address"
                },
                {
                    "indexed": true,
                    "internalType": "address",
                    "name": "operator",
                    "type": "address"
                },
                {
                    "indexed": false,
                    "internalType": "bool",
                    "name": "approved",
                    "type": "bool"
                }
            ],
            "name": "ApprovalForAll",
            "type": "event"
        },
        {
            "anonymous": false,
            "inputs": [
                {
                    "indexed": false,
                    "internalType": "uint256",
                    "name": "_fromTokenId",
                    "type": "uint256"
                },
                {
                    "indexed": false,
                    "internalType": "uint256",
                    "name": "_toTokenId",
                    "type": "uint256"
                }
            ],
            "name": "BatchMetadataUpdate",
            "type": "event"
        },
        {
            "anonymous": false,
            "inputs": [
                {
                    "indexed": true,
                    "internalType": "uint256",
                    "name": "tokenId",
                    "type": "uint256"
                },
                {
                    "indexed": false,
                    "internalType": "uint256",
                    "name": "price",
                    "type": "uint256"
                }
            ],
            "name": "LandListedForSale",
            "type": "event"
        },
        {
            "anonymous": false,
            "inputs": [
                {
                    "indexed": true,
                    "internalType": "uint256",
                    "name": "tokenId",
                    "type": "uint256"
                },
                {
                    "indexed": true,
                    "internalType": "address",
                    "name": "minter",
                    "type": "address"
                },
                {
                    "indexed": false,
                    "internalType": "string",
                    "name": "district",
                    "type": "string"
                }
            ],
            "name": "LandMinted",
            "type": "event"
        },
        {
            "anonymous": false,
            "inputs": [
                {
                    "indexed": true,
                    "internalType": "uint256",
                    "name": "tokenId",
                    "type": "uint256"
                },
                {
                    "indexed": true,
                    "internalType": "address",
                    "name": "renter",
                    "type": "address"
                },
                {
                    "indexed": false,
                    "internalType": "uint256",
                    "name": "expiration",
                    "type": "uint256"
                }
            ],
            "name": "LandRented",
            "type": "event"
        },
        {
            "anonymous": false,
            "inputs": [
                {
                    "indexed": false,
                    "internalType": "uint256",
                    "name": "_tokenId",
                    "type": "uint256"
                }
            ],
            "name": "MetadataUpdate",
            "type": "event"
        },
        {
            "anonymous": false,
            "inputs": [
                {
                    "indexed": true,
                    "internalType": "address",
                    "name": "previousOwner",
                    "type": "address"
                },
                {
                    "indexed": true,
                    "internalType": "address",
                    "name": "newOwner",
                    "type": "address"
                }
            ],
            "name": "OwnershipTransferred",
            "type": "event"
        },
        {
            "anonymous": false,
            "inputs": [
                {
                    "indexed": true,
                    "internalType": "uint256",
                    "name": "proposalId",
                    "type": "uint256"
                },
                {
                    "indexed": false,
                    "internalType": "string",
                    "name": "description",
                    "type": "string"
                },
                {
                    "indexed": false,
                    "internalType": "uint256",
                    "name": "expirationTime",
                    "type": "uint256"
                }
            ],
            "name": "ProposalCreated",
            "type": "event"
        },
        {
            "anonymous": false,
            "inputs": [
                {
                    "indexed": true,
                    "internalType": "uint256",
                    "name": "proposalId",
                    "type": "uint256"
                },
                {
                    "indexed": false,
                    "internalType": "bool",
                    "name": "accepted",
                    "type": "bool"
                }
            ],
            "name": "ProposalExecuted",
            "type": "event"
        },
        {
            "anonymous": false,
            "inputs": [
                {
                    "indexed": true,
                    "internalType": "uint256",
                    "name": "proposalId",
                    "type": "uint256"
                },
                {
                    "indexed": true,
                    "internalType": "address",
                    "name": "voter",
                    "type": "address"
                },
                {
                    "indexed": false,
                    "internalType": "bool",
                    "name": "inFavor",
                    "type": "bool"
                }
            ],
            "name": "ProposalVoted",
            "type": "event"
        },
        {
            "anonymous": false,
            "inputs": [
                {
                    "indexed": true,
                    "internalType": "address",
                    "name": "user",
                    "type": "address"
                },
                {
                    "indexed": false,
                    "internalType": "uint256",
                    "name": "newReputation",
                    "type": "uint256"
                }
            ],
            "name": "ReputationIncreased",
            "type": "event"
        },
        {
            "anonymous": false,
            "inputs": [
                {
                    "indexed": true,
                    "internalType": "address",
                    "name": "from",
                    "type": "address"
                },
                {
                    "indexed": true,
                    "internalType": "address",
                    "name": "to",
                    "type": "address"
                },
                {
                    "indexed": true,
                    "internalType": "uint256",
                    "name": "tokenId",
                    "type": "uint256"
                }
            ],
            "name": "Transfer",
            "type": "event"
        },
        {
            "inputs": [
                {
                    "internalType": "address",
                    "name": "to",
                    "type": "address"
                },
                {
                    "internalType": "uint256",
                    "name": "tokenId",
                    "type": "uint256"
                }
            ],
            "name": "approve",
            "outputs": [],
            "stateMutability": "nonpayable",
            "type": "function"
        },
        {
            "inputs": [
                {
                    "internalType": "address",
                    "name": "owner",
                    "type": "address"
                }
            ],
            "name": "balanceOf",
            "outputs": [
                {
                    "internalType": "uint256",
                    "name": "",
                    "type": "uint256"
                }
            ],
            "stateMutability": "view",
            "type": "function"
        },
        {
            "inputs": [
                {
                    "internalType": "string",
                    "name": "description",
                    "type": "string"
                },
                {
                    "internalType": "uint256",
                    "name": "duration",
                    "type": "uint256"
                }
            ],
            "name": "createProposal",
            "outputs": [],
            "stateMutability": "nonpayable",
            "type": "function"
        },
        {
            "inputs": [
                {
                    "internalType": "uint256",
                    "name": "proposalId",
                    "type": "uint256"
                }
            ],
            "name": "executeProposal",
            "outputs": [],
            "stateMutability": "nonpayable",
            "type": "function"
        },
        {
            "inputs": [
                {
                    "internalType": "uint256",
                    "name": "tokenId",
                    "type": "uint256"
                }
            ],
            "name": "getApproved",
            "outputs": [
                {
                    "internalType": "address",
                    "name": "",
                    "type": "address"
                }
            ],
            "stateMutability": "view",
            "type": "function"
        },
        {
            "inputs": [
                {
                    "internalType": "uint256",
                    "name": "",
                    "type": "uint256"
                },
                {
                    "internalType": "address",
                    "name": "",
                    "type": "address"
                }
            ],
            "name": "hasVoted",
            "outputs": [
                {
                    "internalType": "bool",
                    "name": "",
                    "type": "bool"
                }
            ],
            "stateMutability": "view",
            "type": "function"
        },
        {
            "inputs": [
                {
                    "internalType": "address",
                    "name": "owner",
                    "type": "address"
                },
                {
                    "internalType": "address",
                    "name": "operator",
                    "type": "address"
                }
            ],
            "name": "isApprovedForAll",
            "outputs": [
                {
                    "internalType": "bool",
                    "name": "",
                    "type": "bool"
                }
            ],
            "stateMutability": "view",
            "type": "function"
        },
        {
            "inputs": [
                {
                    "internalType": "uint256",
                    "name": "",
                    "type": "uint256"
                }
            ],
            "name": "lands",
            "outputs": [
                {
                    "internalType": "uint256",
                    "name": "id",
                    "type": "uint256"
                },
                {
                    "internalType": "address",
                    "name": "owner",
                    "type": "address"
                },
                {
                    "internalType": "uint256",
                    "name": "price",
                    "type": "uint256"
                },
                {
                    "internalType": "bool",
                    "name": "forSale",
                    "type": "bool"
                },
                {
                    "internalType": "address",
                    "name": "renter",
                    "type": "address"
                },
                {
                    "internalType": "uint256",
                    "name": "rentExpiration",
                    "type": "uint256"
                },
                {
                    "internalType": "string",
                    "name": "district",
                    "type": "string"
                }
            ],
            "stateMutability": "view",
            "type": "function"
        },
        {
            "inputs": [
                {
                    "internalType": "uint256",
                    "name": "tokenId",
                    "type": "uint256"
                },
                {
                    "internalType": "uint256",
                    "name": "price",
                    "type": "uint256"
                }
            ],
            "name": "listForSale",
            "outputs": [],
            "stateMutability": "nonpayable",
            "type": "function"
        },
        {
            "inputs": [
                {
                    "internalType": "string",
                    "name": "_tokenURI",
                    "type": "string"
                },
                {
                    "internalType": "uint256",
                    "name": "_price",
                    "type": "uint256"
                },
                {
                    "internalType": "string",
                    "name": "_district",
                    "type": "string"
                }
            ],
            "name": "mintLand",
            "outputs": [],
            "stateMutability": "nonpayable",
            "type": "function"
        },
        {
            "inputs": [],
            "name": "name",
            "outputs": [
                {
                    "internalType": "string",
                    "name": "",
                    "type": "string"
                }
            ],
            "stateMutability": "view",
            "type": "function"
        },
        {
            "inputs": [],
            "name": "nextProposalId",
            "outputs": [
                {
                    "internalType": "uint256",
                    "name": "",
                    "type": "uint256"
                }
            ],
            "stateMutability": "view",
            "type": "function"
        },
        {
            "inputs": [],
            "name": "nextTokenId",
            "outputs": [
                {
                    "internalType": "uint256",
                    "name": "",
                    "type": "uint256"
                }
            ],
            "stateMutability": "view",
            "type": "function"
        },
        {
            "inputs": [],
            "name": "owner",
            "outputs": [
                {
                    "internalType": "address",
                    "name": "",
                    "type": "address"
                }
            ],
            "stateMutability": "view",
            "type": "function"
        },
        {
            "inputs": [
                {
                    "internalType": "uint256",
                    "name": "tokenId",
                    "type": "uint256"
                }
            ],
            "name": "ownerOf",
            "outputs": [
                {
                    "internalType": "address",
                    "name": "",
                    "type": "address"
                }
            ],
            "stateMutability": "view",
            "type": "function"
        },
        {
            "inputs": [
                {
                    "internalType": "uint256",
                    "name": "",
                    "type": "uint256"
                }
            ],
            "name": "proposals",
            "outputs": [
                {
                    "internalType": "uint256",
                    "name": "id",
                    "type": "uint256"
                },
                {
                    "internalType": "string",
                    "name": "description",
                    "type": "string"
                },
                {
                    "internalType": "uint256",
                    "name": "yesVotes",
                    "type": "uint256"
                },
                {
                    "internalType": "uint256",
                    "name": "noVotes",
                    "type": "uint256"
                },
                {
                    "internalType": "uint256",
                    "name": "expirationTime",
                    "type": "uint256"
                },
                {
                    "internalType": "bool",
                    "name": "executed",
                    "type": "bool"
                },
                {
                    "internalType": "bool",
                    "name": "accepted",
                    "type": "bool"
                }
            ],
            "stateMutability": "view",
            "type": "function"
        },
        {
            "inputs": [],
            "name": "renounceOwnership",
            "outputs": [],
            "stateMutability": "nonpayable",
            "type": "function"
        },
        {
            "inputs": [
                {
                    "internalType": "uint256",
                    "name": "tokenId",
                    "type": "uint256"
                },
                {
                    "internalType": "uint256",
                    "name": "duration",
                    "type": "uint256"
                }
            ],
            "name": "rentLand",
            "outputs": [],
            "stateMutability": "payable",
            "type": "function"
        },
        {
            "inputs": [
                {
                    "internalType": "address",
                    "name": "",
                    "type": "address"
                }
            ],
            "name": "reputationPoints",
            "outputs": [
                {
                    "internalType": "uint256",
                    "name": "",
                    "type": "uint256"
                }
            ],
            "stateMutability": "view",
            "type": "function"
        },
        {
            "inputs": [
                {
                    "internalType": "address",
                    "name": "from",
                    "type": "address"
                },
                {
                    "internalType": "address",
                    "name": "to",
                    "type": "address"
                },
                {
                    "internalType": "uint256",
                    "name": "tokenId",
                    "type": "uint256"
                }
            ],
            "name": "safeTransferFrom",
            "outputs": [],
            "stateMutability": "nonpayable",
            "type": "function"
        },
        {
            "inputs": [
                {
                    "internalType": "address",
                    "name": "from",
                    "type": "address"
                },
                {
                    "internalType": "address",
                    "name": "to",
                    "type": "address"
                },
                {
                    "internalType": "uint256",
                    "name": "tokenId",
                    "type": "uint256"
                },
                {
                    "internalType": "bytes",
                    "name": "data",
                    "type": "bytes"
                }
            ],
            "name": "safeTransferFrom",
            "outputs": [],
            "stateMutability": "nonpayable",
            "type": "function"
        },
        {
            "inputs": [
                {
                    "internalType": "address",
                    "name": "operator",
                    "type": "address"
                },
                {
                    "internalType": "bool",
                    "name": "approved",
                    "type": "bool"
                }
            ],
            "name": "setApprovalForAll",
            "outputs": [],
            "stateMutability": "nonpayable",
            "type": "function"
        },
        {
            "inputs": [
                {
                    "internalType": "bytes4",
                    "name": "interfaceId",
                    "type": "bytes4"
                }
            ],
            "name": "supportsInterface",
            "outputs": [
                {
                    "internalType": "bool",
                    "name": "",
                    "type": "bool"
                }
            ],
            "stateMutability": "view",
            "type": "function"
        },
        {
            "inputs": [],
            "name": "symbol",
            "outputs": [
                {
                    "internalType": "string",
                    "name": "",
                    "type": "string"
                }
            ],
            "stateMutability": "view",
            "type": "function"
        },
        {
            "inputs": [
                {
                    "internalType": "uint256",
                    "name": "tokenId",
                    "type": "uint256"
                }
            ],
            "name": "tokenURI",
            "outputs": [
                {
                    "internalType": "string",
                    "name": "",
                    "type": "string"
                }
            ],
            "stateMutability": "view",
            "type": "function"
        },
        {
            "inputs": [
                {
                    "internalType": "address",
                    "name": "from",
                    "type": "address"
                },
                {
                    "internalType": "address",
                    "name": "to",
                    "type": "address"
                },
                {
                    "internalType": "uint256",
                    "name": "tokenId",
                    "type": "uint256"
                }
            ],
            "name": "transferFrom",
            "outputs": [],
            "stateMutability": "nonpayable",
            "type": "function"
        },
        {
            "inputs": [
                {
                    "internalType": "address",
                    "name": "newOwner",
                    "type": "address"
                }
            ],
            "name": "transferOwnership",
            "outputs": [],
            "stateMutability": "nonpayable",
            "type": "function"
        },
        {
            "inputs": [
                {
                    "internalType": "uint256",
                    "name": "proposalId",
                    "type": "uint256"
                },
                {
                    "internalType": "bool",
                    "name": "inFavor",
                    "type": "bool"
                }
            ],
            "name": "voteProposal",
            "outputs": [],
            "stateMutability": "nonpayable",
            "type": "function"
        }
    ],
    "bytecode": "0x60806040523480156200001157600080fd5b50336040518060400160405280600f81526020017f4e696768742043697479204c616e6400000000000000000000000000000000008152506040518060400160405280600481526020017f4c414e4400000000000000000000000000000000000000000000000000000000815250816000908162000090919062000472565b508060019081620000a2919062000472565b505050600073ffffffffffffffffffffffffffffffffffffffff168173ffffffffffffffffffffffffffffffffffffffff16036200011a5760006040517f1e4fbdf70000000000000000000000000000000000000000000000000000000081526004016200011191906200059e565b60405180910390fd5b6200012b816200013260201b60201c565b50620005bb565b6000600760009054906101000a900473ffffffffffffffffffffffffffffffffffffffff16905081600760006101000a81548173ffffffffffffffffffffffffffffffffffffffff021916908373ffffffffffffffffffffffffffffffffffffffff1602179055508173ffffffffffffffffffffffffffffffffffffffff168173ffffffffffffffffffffffffffffffffffffffff167f8be0079c531659141344cd1fd0a4f28419497f9722a3daafe3b4186f6b6457e060405160405180910390a35050565b600081519050919050565b7f4e487b7100000000000000000000000000000000000000000000000000000000600052604160045260246000fd5b7f4e487b7100000000000000000000000000000000000000000000000000000000600052602260045260246000fd5b600060028204905060018216806200027a57607f821691505b60208210810362000290576200028f62000232565b5b50919050565b60008190508160005260206000209050919050565b60006020601f8301049050919050565b600082821b905092915050565b600060088302620002fa7fffffffffffffffffffffffffffffffffffffffffffffffffffffffffffffffff82620002bb565b620003068683620002bb565b95508019841693508086168417925050509392505050565b6000819050919050565b6000819050919050565b6000620003536200034d62000347846200031e565b62000328565b6200031e565b9050919050565b6000819050919050565b6200036f8362000332565b620003876200037e826200035a565b848454620002c8565b825550505050565b600090565b6200039e6200038f565b620003ab81848462000364565b505050565b5b81811015620003d357620003c760008262000394565b600181019050620003b1565b5050565b601f8211156200042257620003ec8162000296565b620003f784620002ab565b8101602085101562000407578190505b6200041f6200041685620002ab565b830182620003b0565b50505b505050565b600082821c905092915050565b6000620004476000198460080262000427565b1980831691505092915050565b600062000462838362000434565b9150826002028217905092915050565b6200047d82620001f8565b67ffffffffffffffff81111562000499576200049862000203565b5b620004a5825462000261565b620004b2828285620003d7565b600060209050601f831160018114620004ea5760008415620004d5578287015190505b620004e1858262000454565b86555062000551565b601f198416620004fa8662000296565b60005b828110156200052457848901518255600182019150602085019450602081019050620004fd565b8683101562000544578489015162000540601f89168262000434565b8355505b6001600288020188555050505b505050505050565b600073ffffffffffffffffffffffffffffffffffffffff82169050919050565b6000620005868262000559565b9050919050565b620005988162000579565b82525050565b6000602082019050620005b560008301846200058d565b92915050565b613eb080620005cb6000396000f3fe6080604052600436106101b75760003560e01c8063715018a6116100ec578063c87b56dd1161008a578063e80d7fec11610064578063e80d7fec1461062b578063e985e9c514610654578063f2fde38b14610691578063ff80f7bd146106ba576101b7565b8063c87b56dd1461058f578063e261f1e5146105cc578063e2fb35081461060f576101b7565b806395d89b41116100c657806395d89b41146104e9578063a22cb46514610514578063b88d4fde1461053d578063bcfb9b6114610566576101b7565b8063715018a61461047c57806375794a3c146104935780638da5cb5b146104be576101b7565b80632ab09d141161015957806342842e0e1161013357806342842e0e1461039c57806343859632146103c55780636352211e1461040257806370a082311461043f576101b7565b80632ab09d141461031f57806335facf781461034a5780633b7ff3da14610373576101b7565b8063081812fc11610195578063081812fc14610267578063095ea7b3146102a45780630d61b519146102cd57806323b872dd146102f6576101b7565b8063013cf08b146101bc57806301ffc9a7146101ff57806306fdde031461023c575b600080fd5b3480156101c857600080fd5b506101e360048036038101906101de9190612c59565b6106f7565b6040516101f69796959493929190612d40565b60405180910390f35b34801561020b57600080fd5b5061022660048036038101906102219190612e0e565b6107db565b6040516102339190612e3b565b60405180910390f35b34801561024857600080fd5b5061025161083c565b60405161025e9190612e56565b60405180910390f35b34801561027357600080fd5b5061028e60048036038101906102899190612c59565b6108ce565b60405161029b9190612eb9565b60405180910390f35b3480156102b057600080fd5b506102cb60048036038101906102c69190612f00565b6108ea565b005b3480156102d957600080fd5b506102f460048036038101906102ef9190612c59565b610900565b005b34801561030257600080fd5b5061031d60048036038101906103189190612f40565b610b63565b005b34801561032b57600080fd5b50610334610c65565b6040516103419190612f93565b60405180910390f35b34801561035657600080fd5b50610371600480360381019061036c91906130e3565b610c6b565b005b34801561037f57600080fd5b5061039a6004803603810190610395919061313f565b610db9565b005b3480156103a857600080fd5b506103c360048036038101906103be9190612f40565b610fa8565b005b3480156103d157600080fd5b506103ec60048036038101906103e791906131ca565b610fc8565b6040516103f99190612e3b565b60405180910390f35b34801561040e57600080fd5b5061042960048036038101906104249190612c59565b610ff7565b6040516104369190612eb9565b60405180910390f35b34801561044b57600080fd5b506104666004803603810190610461919061320a565b611009565b6040516104739190612f93565b60405180910390f35b34801561048857600080fd5b506104916110c3565b005b34801561049f57600080fd5b506104a86110d7565b6040516104b59190612f93565b60405180910390f35b3480156104ca57600080fd5b506104d36110dd565b6040516104e09190612eb9565b60405180910390f35b3480156104f557600080fd5b506104fe611107565b60405161050b9190612e56565b60405180910390f35b34801561052057600080fd5b5061053b60048036038101906105369190613263565b611199565b005b34801561054957600080fd5b50610564600480360381019061055f9190613344565b6111af565b005b34801561057257600080fd5b5061058d600480360381019061058891906133c7565b6111d4565b005b34801561059b57600080fd5b506105b660048036038101906105b19190612c59565b611441565b6040516105c39190612e56565b60405180910390f35b3480156105d857600080fd5b506105f360048036038101906105ee9190612c59565b611554565b6040516106069796959493929190613407565b60405180910390f35b6106296004803603810190610624919061347d565b61166b565b005b34801561063757600080fd5b50610652600480360381019061064d919061347d565b611889565b005b34801561066057600080fd5b5061067b600480360381019061067691906134bd565b611985565b6040516106889190612e3b565b60405180910390f35b34801561069d57600080fd5b506106b860048036038101906106b3919061320a565b611a19565b005b3480156106c657600080fd5b506106e160048036038101906106dc919061320a565b611a9f565b6040516106ee9190612f93565b60405180910390f35b600c6020528060005260406000206000915090508060000154908060010180546107209061352c565b80601f016020809104026020016040519081016040528092919081815260200182805461074c9061352c565b80156107995780601f1061076e57610100808354040283529160200191610799565b820191906000526020600020905b81548152906001019060200180831161077c57829003601f168201915b5050505050908060020154908060030154908060040154908060050160009054906101000a900460ff16908060050160019054906101000a900460ff16905087565b6000634906490660e01b7bffffffffffffffffffffffffffffffffffffffffffffffffffffffff1916827bffffffffffffffffffffffffffffffffffffffffffffffffffffffff19161480610835575061083482611ab7565b5b9050919050565b60606000805461084b9061352c565b80601f01602080910402602001604051908101604052809291908181526020018280546108779061352c565b80156108c45780601f10610899576101008083540402835291602001916108c4565b820191906000526020600020905b8154815290600101906020018083116108a757829003601f168201915b5050505050905090565b60006108d982611b99565b506108e382611c21565b9050919050565b6108fc82826108f7611c5e565b611c66565b5050565b610908611c78565b600c600082815260200190815260200160002060050160009054906101000a900460ff161561096c576040517f08c379a0000000000000000000000000000000000000000000000000000000008152600401610963906135a9565b60405180910390fd5b600c60008281526020019081526020016000206004015442116109c4576040517f08c379a00000000000000000000000000000000000000000000000000000000081526004016109bb90613615565b60405180910390fd5b6000600c60008381526020019081526020016000206002015411806109ff57506000600c600083815260200190815260200160002060030154115b610a3e576040517f08c379a0000000000000000000000000000000000000000000000000000000008152600401610a3590613681565b60405180910390fd5b600c600082815260200190815260200160002060030154600c6000838152602001908152602001600020600201541115610aa6576001600c600083815260200190815260200160002060050160016101000a81548160ff021916908315150217905550610ad6565b6000600c600083815260200190815260200160002060050160016101000a81548160ff0219169083151502179055505b6001600c600083815260200190815260200160002060050160006101000a81548160ff021916908315150217905550807f948f4a9cd986f1118c3fbd459f7a22b23c0693e1ca3ef06a6a8be5aa7d39cc03600c600084815260200190815260200160002060050160019054906101000a900460ff16604051610b589190612e3b565b60405180910390a250565b600073ffffffffffffffffffffffffffffffffffffffff168273ffffffffffffffffffffffffffffffffffffffff1603610bd55760006040517f64a0ae92000000000000000000000000000000000000000000000000000000008152600401610bcc9190612eb9565b60405180910390fd5b6000610be98383610be4611c5e565b611cff565b90508373ffffffffffffffffffffffffffffffffffffffff168173ffffffffffffffffffffffffffffffffffffffff1614610c5f578382826040517f64283d7b000000000000000000000000000000000000000000000000000000008152600401610c56939291906136a1565b60405180910390fd5b50505050565b60095481565b6040518060e00160405280600954815260200183815260200160008152602001600081526020018242610c9e9190613707565b815260200160001515815260200160001515815250600c60006009548152602001908152602001600020600082015181600001556020820151816001019081610ce791906138e7565b5060408201518160020155606082015181600301556080820151816004015560a08201518160050160006101000a81548160ff02191690831515021790555060c08201518160050160016101000a81548160ff02191690831515021790555090505060096000815480929190610d5c906139b9565b91905055506009547ff5dc0da9afa6d080780a49fd8c680f03d2ddf3c067cd6d0c85360c096644d2d383600c6000600954815260200190815260200160002060040154604051610dad929190613a01565b60405180910390a25050565b60006008549050610dca3382611f19565b610dd48185611f37565b6040518060e001604052808281526020013373ffffffffffffffffffffffffffffffffffffffff168152602001848152602001600015158152602001600073ffffffffffffffffffffffffffffffffffffffff1681526020016000815260200183815250600a60008381526020019081526020016000206000820151816000015560208201518160010160006101000a81548173ffffffffffffffffffffffffffffffffffffffff021916908373ffffffffffffffffffffffffffffffffffffffff1602179055506040820151816002015560608201518160030160006101000a81548160ff02191690831515021790555060808201518160030160016101000a81548173ffffffffffffffffffffffffffffffffffffffff021916908373ffffffffffffffffffffffffffffffffffffffff16021790555060a0820151816004015560c0820151816005019081610f2c91906138e7565b5090505060086000815480929190610f43906139b9565b9190505550610f5333600a611f93565b3373ffffffffffffffffffffffffffffffffffffffff16817fc90e02727a6d339588cdd8fd77a925792b5b9c252ad61b67e234e5fde620e2bb84604051610f9a9190612e56565b60405180910390a350505050565b610fc3838383604051806020016040528060008152506111af565b505050565b600d6020528160005260406000206020528060005260406000206000915091509054906101000a900460ff1681565b600061100282611b99565b9050919050565b60008073ffffffffffffffffffffffffffffffffffffffff168273ffffffffffffffffffffffffffffffffffffffff160361107c5760006040517f89c62b640000000000000000000000000000000000000000000000000000000081526004016110739190612eb9565b60405180910390fd5b600360008373ffffffffffffffffffffffffffffffffffffffff1673ffffffffffffffffffffffffffffffffffffffff168152602001908152602001600020549050919050565b6110cb611c78565b6110d5600061207a565b565b60085481565b6000600760009054906101000a900473ffffffffffffffffffffffffffffffffffffffff16905090565b6060600180546111169061352c565b80601f01602080910402602001604051908101604052809291908181526020018280546111429061352c565b801561118f5780601f106111645761010080835404028352916020019161118f565b820191906000526020600020905b81548152906001019060200180831161117257829003601f168201915b5050505050905090565b6111ab6111a4611c5e565b8383612140565b5050565b6111ba848484610b63565b6111ce6111c5611c5e565b858585856122af565b50505050565b60006111df33611009565b1161121f576040517f08c379a000000000000000000000000000000000000000000000000000000000815260040161121690613a7d565b60405180910390fd5b600d600083815260200190815260200160002060003373ffffffffffffffffffffffffffffffffffffffff1673ffffffffffffffffffffffffffffffffffffffff16815260200190815260200160002060009054906101000a900460ff16156112bd576040517f08c379a00000000000000000000000000000000000000000000000000000000081526004016112b490613b0f565b60405180910390fd5b600c600083815260200190815260200160002060040154421115611316576040517f08c379a000000000000000000000000000000000000000000000000000000000815260040161130d90613b7b565b60405180910390fd5b801561134d57600c60008381526020019081526020016000206002016000815480929190611343906139b9565b919050555061137a565b600c60008381526020019081526020016000206003016000815480929190611374906139b9565b91905055505b6001600d600084815260200190815260200160002060003373ffffffffffffffffffffffffffffffffffffffff1673ffffffffffffffffffffffffffffffffffffffff16815260200190815260200160002060006101000a81548160ff0219169083151502179055506113ee336002611f93565b3373ffffffffffffffffffffffffffffffffffffffff16827f0def80f9a3b4c7a4251442658ccf516bf33ea4acaf31638fc6da8ebdb0f64c72836040516114359190612e3b565b60405180910390a35050565b606061144c82611b99565b50600060066000848152602001908152602001600020805461146d9061352c565b80601f01602080910402602001604051908101604052809291908181526020018280546114999061352c565b80156114e65780601f106114bb576101008083540402835291602001916114e6565b820191906000526020600020905b8154815290600101906020018083116114c957829003601f168201915b5050505050905060006114f7612460565b9050600081510361150c57819250505061154f565b600082511115611541578082604051602001611529929190613bd7565b6040516020818303038152906040529250505061154f565b61154a84612477565b925050505b919050565b600a6020528060005260406000206000915090508060000154908060010160009054906101000a900473ffffffffffffffffffffffffffffffffffffffff16908060020154908060030160009054906101000a900460ff16908060030160019054906101000a900473ffffffffffffffffffffffffffffffffffffffff16908060040154908060050180546115e89061352c565b80601f01602080910402602001604051908101604052809291908181526020018280546116149061352c565b80156116615780601f1061163657610100808354040283529160200191611661565b820191906000526020600020905b81548152906001019060200180831161164457829003601f168201915b5050505050905087565b60001515600a600084815260200190815260200160002060030160009054906101000a900460ff161515146116d5576040517f08c379a00000000000000000000000000000000000000000000000000000000081526004016116cc90613c47565b60405180910390fd5b600073ffffffffffffffffffffffffffffffffffffffff16600a600084815260200190815260200160002060030160019054906101000a900473ffffffffffffffffffffffffffffffffffffffff1673ffffffffffffffffffffffffffffffffffffffff16148061175b5750600a60008381526020019081526020016000206004015442115b61179a576040517f08c379a000000000000000000000000000000000000000000000000000000000815260040161179190613cb3565b60405180910390fd5b33600a600084815260200190815260200160002060030160016101000a81548173ffffffffffffffffffffffffffffffffffffffff021916908373ffffffffffffffffffffffffffffffffffffffff16021790555080426117fb9190613707565b600a600084815260200190815260200160002060040181905550611820336005611f93565b3373ffffffffffffffffffffffffffffffffffffffff16827faa1ddafd259492a44824eb1ab461269144fdb9c3590a4299bfa0fcef0aa40e1c600a60008681526020019081526020016000206004015460405161187d9190612f93565b60405180910390a35050565b3373ffffffffffffffffffffffffffffffffffffffff166118a983610ff7565b73ffffffffffffffffffffffffffffffffffffffff16146118ff576040517f08c379a00000000000000000000000000000000000000000000000000000000081526004016118f690613d1f565b60405180910390fd5b6001600a600084815260200190815260200160002060030160006101000a81548160ff02191690831515021790555080600a600084815260200190815260200160002060020181905550817fdea5c3193c68e6199b356e0ceac7970d0951be96d03378b29dbaf40b6e2f4334826040516119799190612f93565b60405180910390a25050565b6000600560008473ffffffffffffffffffffffffffffffffffffffff1673ffffffffffffffffffffffffffffffffffffffff16815260200190815260200160002060008373ffffffffffffffffffffffffffffffffffffffff1673ffffffffffffffffffffffffffffffffffffffff16815260200190815260200160002060009054906101000a900460ff16905092915050565b611a21611c78565b600073ffffffffffffffffffffffffffffffffffffffff168173ffffffffffffffffffffffffffffffffffffffff1603611a935760006040517f1e4fbdf7000000000000000000000000000000000000000000000000000000008152600401611a8a9190612eb9565b60405180910390fd5b611a9c8161207a565b50565b600b6020528060005260406000206000915090505481565b60007f80ac58cd000000000000000000000000000000000000000000000000000000007bffffffffffffffffffffffffffffffffffffffffffffffffffffffff1916827bffffffffffffffffffffffffffffffffffffffffffffffffffffffff19161480611b8257507f5b5e139f000000000000000000000000000000000000000000000000000000007bffffffffffffffffffffffffffffffffffffffffffffffffffffffff1916827bffffffffffffffffffffffffffffffffffffffffffffffffffffffff1916145b80611b925750611b91826124e0565b5b9050919050565b600080611ba58361254a565b9050600073ffffffffffffffffffffffffffffffffffffffff168173ffffffffffffffffffffffffffffffffffffffff1603611c1857826040517f7e273289000000000000000000000000000000000000000000000000000000008152600401611c0f9190612f93565b60405180910390fd5b80915050919050565b60006004600083815260200190815260200160002060009054906101000a900473ffffffffffffffffffffffffffffffffffffffff169050919050565b600033905090565b611c738383836001612587565b505050565b611c80611c5e565b73ffffffffffffffffffffffffffffffffffffffff16611c9e6110dd565b73ffffffffffffffffffffffffffffffffffffffff1614611cfd57611cc1611c5e565b6040517f118cdaa7000000000000000000000000000000000000000000000000000000008152600401611cf49190612eb9565b60405180910390fd5b565b600080611d0b8461254a565b9050600073ffffffffffffffffffffffffffffffffffffffff168373ffffffffffffffffffffffffffffffffffffffff1614611d4d57611d4c81848661274c565b5b600073ffffffffffffffffffffffffffffffffffffffff168173ffffffffffffffffffffffffffffffffffffffff1614611dde57611d8f600085600080612587565b6001600360008373ffffffffffffffffffffffffffffffffffffffff1673ffffffffffffffffffffffffffffffffffffffff168152602001908152602001600020600082825403925050819055505b600073ffffffffffffffffffffffffffffffffffffffff168573ffffffffffffffffffffffffffffffffffffffff1614611e61576001600360008773ffffffffffffffffffffffffffffffffffffffff1673ffffffffffffffffffffffffffffffffffffffff168152602001908152602001600020600082825401925050819055505b846002600086815260200190815260200160002060006101000a81548173ffffffffffffffffffffffffffffffffffffffff021916908373ffffffffffffffffffffffffffffffffffffffff160217905550838573ffffffffffffffffffffffffffffffffffffffff168273ffffffffffffffffffffffffffffffffffffffff167fddf252ad1be2c89b69c2b068fc378daa952ba7f163c4a11628f55a4df523b3ef60405160405180910390a4809150509392505050565b611f33828260405180602001604052806000815250612810565b5050565b80600660008481526020019081526020016000209081611f5791906138e7565b507ff8e1a15aba9398e019f0b49df1a4fde98ee17ae345cb5f6b5e2c27f5033e8ce782604051611f879190612f93565b60405180910390a15050565b80600b60008473ffffffffffffffffffffffffffffffffffffffff1673ffffffffffffffffffffffffffffffffffffffff1681526020019081526020016000206000828254611fe29190613707565b925050819055508173ffffffffffffffffffffffffffffffffffffffff167ffac498e7ee7d43e382528bf22afd838a7c6abfa5f54e7c564f7e5a54a18ca34c600b60008573ffffffffffffffffffffffffffffffffffffffff1673ffffffffffffffffffffffffffffffffffffffff1681526020019081526020016000205460405161206e9190612f93565b60405180910390a25050565b6000600760009054906101000a900473ffffffffffffffffffffffffffffffffffffffff16905081600760006101000a81548173ffffffffffffffffffffffffffffffffffffffff021916908373ffffffffffffffffffffffffffffffffffffffff1602179055508173ffffffffffffffffffffffffffffffffffffffff168173ffffffffffffffffffffffffffffffffffffffff167f8be0079c531659141344cd1fd0a4f28419497f9722a3daafe3b4186f6b6457e060405160405180910390a35050565b600073ffffffffffffffffffffffffffffffffffffffff168273ffffffffffffffffffffffffffffffffffffffff16036121b157816040517f5b08ba180000000000000000000000000000000000000000000000000000000081526004016121a89190612eb9565b60405180910390fd5b80600560008573ffffffffffffffffffffffffffffffffffffffff1673ffffffffffffffffffffffffffffffffffffffff16815260200190815260200160002060008473ffffffffffffffffffffffffffffffffffffffff1673ffffffffffffffffffffffffffffffffffffffff16815260200190815260200160002060006101000a81548160ff0219169083151502179055508173ffffffffffffffffffffffffffffffffffffffff168373ffffffffffffffffffffffffffffffffffffffff167f17307eab39ab6107e8899845ad3d59bd9653f200f220920489ca2b5937696c31836040516122a29190612e3b565b60405180910390a3505050565b60008373ffffffffffffffffffffffffffffffffffffffff163b1115612459578273ffffffffffffffffffffffffffffffffffffffff1663150b7a02868685856040518563ffffffff1660e01b815260040161230e9493929190613d94565b6020604051808303816000875af192505050801561234a57506040513d601f19601f820116820180604052508101906123479190613df5565b60015b6123ce573d806000811461237a576040519150601f19603f3d011682016040523d82523d6000602084013e61237f565b606091505b5060008151036123c657836040517f64a0ae920000000000000000000000000000000000000000000000000000000081526004016123bd9190612eb9565b60405180910390fd5b805181602001fd5b63150b7a0260e01b7bffffffffffffffffffffffffffffffffffffffffffffffffffffffff1916817bffffffffffffffffffffffffffffffffffffffffffffffffffffffff19161461245757836040517f64a0ae9200000000000000000000000000000000000000000000000000000000815260040161244e9190612eb9565b60405180910390fd5b505b5050505050565b606060405180602001604052806000815250905090565b606061248282611b99565b50600061248d612460565b905060008151116124ad57604051806020016040528060008152506124d8565b806124b784612834565b6040516020016124c8929190613bd7565b6040516020818303038152906040525b915050919050565b60007f01ffc9a7000000000000000000000000000000000000000000000000000000007bffffffffffffffffffffffffffffffffffffffffffffffffffffffff1916827bffffffffffffffffffffffffffffffffffffffffffffffffffffffff1916149050919050565b60006002600083815260200190815260200160002060009054906101000a900473ffffffffffffffffffffffffffffffffffffffff169050919050565b80806125c05750600073ffffffffffffffffffffffffffffffffffffffff168273ffffffffffffffffffffffffffffffffffffffff1614155b156126f45760006125d084611b99565b9050600073ffffffffffffffffffffffffffffffffffffffff168373ffffffffffffffffffffffffffffffffffffffff161415801561263b57508273ffffffffffffffffffffffffffffffffffffffff168173ffffffffffffffffffffffffffffffffffffffff1614155b801561264e575061264c8184611985565b155b1561269057826040517fa9fbf51f0000000000000000000000000000000000000000000000000000000081526004016126879190612eb9565b60405180910390fd5b81156126f257838573ffffffffffffffffffffffffffffffffffffffff168273ffffffffffffffffffffffffffffffffffffffff167f8c5be1e5ebec7d5bd14f71427d1e84f3dd0314c0f7b2291e5b200ac8c7c3b92560405160405180910390a45b505b836004600085815260200190815260200160002060006101000a81548173ffffffffffffffffffffffffffffffffffffffff021916908373ffffffffffffffffffffffffffffffffffffffff16021790555050505050565b612757838383612902565b61280b57600073ffffffffffffffffffffffffffffffffffffffff168373ffffffffffffffffffffffffffffffffffffffff16036127cc57806040517f7e2732890000000000000000000000000000000000000000000000000000000081526004016127c39190612f93565b60405180910390fd5b81816040517f177e802f000000000000000000000000000000000000000000000000000000008152600401612802929190613e22565b60405180910390fd5b505050565b61281a83836129c3565b61282f612825611c5e565b60008585856122af565b505050565b60606000600161284384612abc565b01905060008167ffffffffffffffff81111561286257612861612fb8565b5b6040519080825280601f01601f1916602001820160405280156128945781602001600182028036833780820191505090505b509050600082602001820190505b6001156128f7578080600190039150507f3031323334353637383961626364656600000000000000000000000000000000600a86061a8153600a85816128eb576128ea613e4b565b5b049450600085036128a2575b819350505050919050565b60008073ffffffffffffffffffffffffffffffffffffffff168373ffffffffffffffffffffffffffffffffffffffff16141580156129ba57508273ffffffffffffffffffffffffffffffffffffffff168473ffffffffffffffffffffffffffffffffffffffff16148061297b575061297a8484611985565b5b806129b957508273ffffffffffffffffffffffffffffffffffffffff166129a183611c21565b73ffffffffffffffffffffffffffffffffffffffff16145b5b90509392505050565b600073ffffffffffffffffffffffffffffffffffffffff168273ffffffffffffffffffffffffffffffffffffffff1603612a355760006040517f64a0ae92000000000000000000000000000000000000000000000000000000008152600401612a2c9190612eb9565b60405180910390fd5b6000612a4383836000611cff565b9050600073ffffffffffffffffffffffffffffffffffffffff168173ffffffffffffffffffffffffffffffffffffffff1614612ab75760006040517f73c6ac6e000000000000000000000000000000000000000000000000000000008152600401612aae9190612eb9565b60405180910390fd5b505050565b600080600090507a184f03e93ff9f4daa797ed6e38ed64bf6a1f0100000000000000008310612b1a577a184f03e93ff9f4daa797ed6e38ed64bf6a1f0100000000000000008381612b1057612b0f613e4b565b5b0492506040810190505b6d04ee2d6d415b85acef81000000008310612b57576d04ee2d6d415b85acef81000000008381612b4d57612b4c613e4b565b5b0492506020810190505b662386f26fc100008310612b8657662386f26fc100008381612b7c57612b7b613e4b565b5b0492506010810190505b6305f5e1008310612baf576305f5e1008381612ba557612ba4613e4b565b5b0492506008810190505b6127108310612bd4576127108381612bca57612bc9613e4b565b5b0492506004810190505b60648310612bf75760648381612bed57612bec613e4b565b5b0492506002810190505b600a8310612c06576001810190505b80915050919050565b6000604051905090565b600080fd5b600080fd5b6000819050919050565b612c3681612c23565b8114612c4157600080fd5b50565b600081359050612c5381612c2d565b92915050565b600060208284031215612c6f57612c6e612c19565b5b6000612c7d84828501612c44565b91505092915050565b612c8f81612c23565b82525050565b600081519050919050565b600082825260208201905092915050565b60005b83811015612ccf578082015181840152602081019050612cb4565b60008484015250505050565b6000601f19601f8301169050919050565b6000612cf782612c95565b612d018185612ca0565b9350612d11818560208601612cb1565b612d1a81612cdb565b840191505092915050565b60008115159050919050565b612d3a81612d25565b82525050565b600060e082019050612d55600083018a612c86565b8181036020830152612d678189612cec565b9050612d766040830188612c86565b612d836060830187612c86565b612d906080830186612c86565b612d9d60a0830185612d31565b612daa60c0830184612d31565b98975050505050505050565b60007fffffffff0000000000000000000000000000000000000000000000000000000082169050919050565b612deb81612db6565b8114612df657600080fd5b50565b600081359050612e0881612de2565b92915050565b600060208284031215612e2457612e23612c19565b5b6000612e3284828501612df9565b91505092915050565b6000602082019050612e506000830184612d31565b92915050565b60006020820190508181036000830152612e708184612cec565b905092915050565b600073ffffffffffffffffffffffffffffffffffffffff82169050919050565b6000612ea382612e78565b9050919050565b612eb381612e98565b82525050565b6000602082019050612ece6000830184612eaa565b92915050565b612edd81612e98565b8114612ee857600080fd5b50565b600081359050612efa81612ed4565b92915050565b60008060408385031215612f1757612f16612c19565b5b6000612f2585828601612eeb565b9250506020612f3685828601612c44565b9150509250929050565b600080600060608486031215612f5957612f58612c19565b5b6000612f6786828701612eeb565b9350506020612f7886828701612eeb565b9250506040612f8986828701612c44565b9150509250925092565b6000602082019050612fa86000830184612c86565b92915050565b600080fd5b600080fd5b7f4e487b7100000000000000000000000000000000000000000000000000000000600052604160045260246000fd5b612ff082612cdb565b810181811067ffffffffffffffff8211171561300f5761300e612fb8565b5b80604052505050565b6000613022612c0f565b905061302e8282612fe7565b919050565b600067ffffffffffffffff82111561304e5761304d612fb8565b5b61305782612cdb565b9050602081019050919050565b82818337600083830152505050565b600061308661308184613033565b613018565b9050828152602081018484840111156130a2576130a1612fb3565b5b6130ad848285613064565b509392505050565b600082601f8301126130ca576130c9612fae565b5b81356130da848260208601613073565b91505092915050565b600080604083850312156130fa576130f9612c19565b5b600083013567ffffffffffffffff81111561311857613117612c1e565b5b613124858286016130b5565b925050602061313585828601612c44565b9150509250929050565b60008060006060848603121561315857613157612c19565b5b600084013567ffffffffffffffff81111561317657613175612c1e565b5b613182868287016130b5565b935050602061319386828701612c44565b925050604084013567ffffffffffffffff8111156131b4576131b3612c1e565b5b6131c0868287016130b5565b9150509250925092565b600080604083850312156131e1576131e0612c19565b5b60006131ef85828601612c44565b925050602061320085828601612eeb565b9150509250929050565b6000602082840312156132205761321f612c19565b5b600061322e84828501612eeb565b91505092915050565b61324081612d25565b811461324b57600080fd5b50565b60008135905061325d81613237565b92915050565b6000806040838503121561327a57613279612c19565b5b600061328885828601612eeb565b92505060206132998582860161324e565b9150509250929050565b600067ffffffffffffffff8211156132be576132bd612fb8565b5b6132c782612cdb565b9050602081019050919050565b60006132e76132e2846132a3565b613018565b90508281526020810184848401111561330357613302612fb3565b5b61330e848285613064565b509392505050565b600082601f83011261332b5761332a612fae565b5b813561333b8482602086016132d4565b91505092915050565b6000806000806080858703121561335e5761335d612c19565b5b600061336c87828801612eeb565b945050602061337d87828801612eeb565b935050604061338e87828801612c44565b925050606085013567ffffffffffffffff8111156133af576133ae612c1e565b5b6133bb87828801613316565b91505092959194509250565b600080604083850312156133de576133dd612c19565b5b60006133ec85828601612c44565b92505060206133fd8582860161324e565b9150509250929050565b600060e08201905061341c600083018a612c86565b6134296020830189612eaa565b6134366040830188612c86565b6134436060830187612d31565b6134506080830186612eaa565b61345d60a0830185612c86565b81810360c083015261346f8184612cec565b905098975050505050505050565b6000806040838503121561349457613493612c19565b5b60006134a285828601612c44565b92505060206134b385828601612c44565b9150509250929050565b600080604083850312156134d4576134d3612c19565b5b60006134e285828601612eeb565b92505060206134f385828601612eeb565b9150509250929050565b7f4e487b7100000000000000000000000000000000000000000000000000000000600052602260045260246000fd5b6000600282049050600182168061354457607f821691505b602082108103613557576135566134fd565b5b50919050565b7f416c726561647920657865637574656400000000000000000000000000000000600082015250565b6000613593601083612ca0565b915061359e8261355d565b602082019050919050565b600060208201905081810360008301526135c281613586565b9050919050565b7f566f74696e6720706572696f6420686173206e6f7420656e6465642079657400600082015250565b60006135ff601f83612ca0565b915061360a826135c9565b602082019050919050565b6000602082019050818103600083015261362e816135f2565b9050919050565b7f4e6f20766f746573206f6e20746869732070726f706f73616c00000000000000600082015250565b600061366b601983612ca0565b915061367682613635565b602082019050919050565b6000602082019050818103600083015261369a8161365e565b9050919050565b60006060820190506136b66000830186612eaa565b6136c36020830185612c86565b6136d06040830184612eaa565b949350505050565b7f4e487b7100000000000000000000000000000000000000000000000000000000600052601160045260246000fd5b600061371282612c23565b915061371d83612c23565b9250828201905080821115613735576137346136d8565b5b92915050565b60008190508160005260206000209050919050565b60006020601f8301049050919050565b600082821b905092915050565b60006008830261379d7fffffffffffffffffffffffffffffffffffffffffffffffffffffffffffffffff82613760565b6137a78683613760565b95508019841693508086168417925050509392505050565b6000819050919050565b60006137e46137df6137da84612c23565b6137bf565b612c23565b9050919050565b6000819050919050565b6137fe836137c9565b61381261380a826137eb565b84845461376d565b825550505050565b600090565b61382761381a565b6138328184846137f5565b505050565b5b818110156138565761384b60008261381f565b600181019050613838565b5050565b601f82111561389b5761386c8161373b565b61387584613750565b81016020851015613884578190505b61389861389085613750565b830182613837565b50505b505050565b600082821c905092915050565b60006138be600019846008026138a0565b1980831691505092915050565b60006138d783836138ad565b9150826002028217905092915050565b6138f082612c95565b67ffffffffffffffff81111561390957613908612fb8565b5b613913825461352c565b61391e82828561385a565b600060209050601f831160018114613951576000841561393f578287015190505b61394985826138cb565b8655506139b1565b601f19841661395f8661373b565b60005b8281101561398757848901518255600182019150602085019450602081019050613962565b868310156139a457848901516139a0601f8916826138ad565b8355505b6001600288020188555050505b505050505050565b60006139c482612c23565b91507fffffffffffffffffffffffffffffffffffffffffffffffffffffffffffffffff82036139f6576139f56136d8565b5b600182019050919050565b60006040820190508181036000830152613a1b8185612cec565b9050613a2a6020830184612c86565b9392505050565b7f4f6e6c79206c616e646f776e6572732063616e20766f74650000000000000000600082015250565b6000613a67601883612ca0565b9150613a7282613a31565b602082019050919050565b60006020820190508181036000830152613a9681613a5a565b9050919050565b7f596f75206861766520616c726561647920766f746564206f6e2074686973207060008201527f726f706f73616c00000000000000000000000000000000000000000000000000602082015250565b6000613af9602783612ca0565b9150613b0482613a9d565b604082019050919050565b60006020820190508181036000830152613b2881613aec565b9050919050565b7f566f74696e6720706572696f642068617320656e646564000000000000000000600082015250565b6000613b65601783612ca0565b9150613b7082613b2f565b602082019050919050565b60006020820190508181036000830152613b9481613b58565b9050919050565b600081905092915050565b6000613bb182612c95565b613bbb8185613b9b565b9350613bcb818560208601612cb1565b80840191505092915050565b6000613be38285613ba6565b9150613bef8284613ba6565b91508190509392505050565b7f4c616e6420697320666f722073616c652c206e6f742072656e74000000000000600082015250565b6000613c31601a83612ca0565b9150613c3c82613bfb565b602082019050919050565b60006020820190508181036000830152613c6081613c24565b9050919050565b7f416c72656164792072656e746564000000000000000000000000000000000000600082015250565b6000613c9d600e83612ca0565b9150613ca882613c67565b602082019050919050565b60006020820190508181036000830152613ccc81613c90565b9050919050565b7f4e6f7420746865206c616e646f776e6572000000000000000000000000000000600082015250565b6000613d09601183612ca0565b9150613d1482613cd3565b602082019050919050565b60006020820190508181036000830152613d3881613cfc565b9050919050565b600081519050919050565b600082825260208201905092915050565b6000613d6682613d3f565b613d708185613d4a565b9350613d80818560208601612cb1565b613d8981612cdb565b840191505092915050565b6000608082019050613da96000830187612eaa565b613db66020830186612eaa565b613dc36040830185612c86565b8181036060830152613dd58184613d5b565b905095945050505050565b600081519050613def81612de2565b92915050565b600060208284031215613e0b57613e0a612c19565b5b6000613e1984828501613de0565b91505092915050565b6000604082019050613e376000830185612eaa565b613e446020830184612c86565b9392505050565b7f4e487b7100000000000000000000000000000000000000000000000000000000600052601260045260246000fdfea2646970667358221220b3cc4c9bba0715c617ee76719b704fb6ec55b8229765959adff2872a0e1e3a1c64736f6c63430008140033",
    "linkReferences": {},
    "deployedLinkReferences": {}
}